:020000040800F2
:1000000060100020B51800080D1900080D1900082F
:100010000D1900080D1900080D1900080000000056
:100020000000000000000000000000000D190008A2
:100030000D190008000000000D190008292500080E
:100040000D1900080D1900080D1900080D190008F8
:100050000D1900080D1900080D1900080D190008E8
:100060000D1900080D1900080D1900080D190008D8
:100070000D1900080D1900080D1900080D190008C8
:100080000D1900080D1900080D1900080D190008B8
:100090000D1900080D1900080D1900080D190008A8
:1000A0000D1900080D1900080D1900080D19000898
:1000B0000D1900080D1900080D1900080D19000888
:1000C0000D1900080D1900080D1900080D19000878
:1000D0000D1900080D1900080D1900080D19000868
:1000E0000D1900080D190008992C00080D190008B9
:1000F0000D1900080D1900080D1900080D19000848
:100100000D1900080D1900080D1900080D19000837
:100110000D1900080D1900080D1900080D19000827
:100120000D1900080D1900080D1900080D19000817
:100130000D1900080D1900080D1900080D19000807
:100140000D1900080D1900080D190008052D0008EB
:100150000D1900080D1900080D1900080D190008E7
:100160000D1900080D1900080D1900080D190008D7
:100170000D1900080D1900080D1900080D190008C7
:100180000D1900080D1900080D1900080D190008B7
:100190000D1900080D1900080D1900080D190008A7
:1001A0000D1900080D1900080D19000880B485B05C
:1001B00000AF78600023FB607B68DB684FF0FF32A4
:1001C0005A607B68DB686FF080425A61FB7B43F0CA
:1001D0008003FB737B7B43F008037B737B68DB68E6
:1001E000FA689A611437BD465DF8047B704700BF1A
:1001F00080B586B000AF78600023FB7400237B617C
:100200000023FB60032002F013FD7B68DB681B69A1
:10021000FB607B6901337B617B69174A934201D99B
:10022000002324E0FB68DB0FDBB2002BEAD00023C5
:100230007B61FB6843F00103FB607B68DB68FA6865
:100240001A617B68DB681B69FB607B6901337B613A
:100250007B69094A934200D905E0FB6803F001037A
:10026000DBB2012BEDD0032002F0E2FCFB7C184650
:100270001837BD4680BD00BF400D030080B489B073
:1002800000AFF860B96011461A460B46FB71134681
:10029000BB800023FB76FB68DB78002B22D1002398
:1002A0007B610023FB61BB880333002B00DA03333F
:1002B0009B107B61FB79FA6832339B0013449B6887
:1002C0003B610023FB6109E0BB681A683B691A6067
:1002D000FB690133FB61BB680433BB60FA697B696E
:1002E0009A42F1D3FB7E18462437BD465DF8047B65
:1002F000704700BF80B489B000AFF860B9601346A2
:10030000FB800023FB61FB880333002B00DA0333FF
:100310009B10BB61FB68D3F8D0307B610023FB618D
:1003200009E07B691A68BB681A60FB690133FB61ED
:10033000BB680433BB60FA69BB699A42F1D3BB68FE
:1003400018462437BD465DF8047B704780B487B0FB
:1003500000AF78600B46FB7000233B610023FB730A
:100360007B680022DA707B6801229A707B684022E9
:100370009A80FB78012B16D14FF0A0433B617B683C
:100380000122DA727B6808221A707B6804225A7094
:100390007B684FF4A072DA807B6802221A727B6855
:1003A00001229A7211E0FB78002B0ED1454B3B6184
:1003B0007B680022DA727B680C221A707B68062246
:1003C0005A707B684FF4A062DA803A697B68DA6021
:1003D0003B6903F500631A467B681A6100237B6161
:1003E0001CE07B695A013B69134403F5106319460D
:1003F0007A687B6904339B00134499607B695A01D6
:100400003B69134403F5306319467A687B691433FA
:100410009B00134459607B6901337B617B685B7887
:100420001A467B699A42DCD83B6903F580631A4619
:100430007B685A613B6903F588631A467B68C3F899
:10044000CC2000237B610FE07B695A013B69134498
:1004500003F5A06319467A687B6922339B00134435
:1004600099607B6901337B617B681B781A467B69E5
:100470009A42E9D800237B610FE07B691A033B694C
:10048000134403F5805319467A687B6932339B0025
:10049000134499607B6901337B617B681B781A4642
:1004A0007B699A42E9D83B6903F560631A467B6829
:1004B000C3F80C21FB7B18461C37BD465DF8047B56
:1004C000704700BF0000044080B586B000AF786080
:1004D0000023FB7500233B610023FB600023BB600E
:1004E0007B681B7A012B42D17B68DB689B6BFB60CE
:1004F000BB7B6FF30003BB737B685B7A002B03D07D
:10050000BB7B43F01003BB737B68DB68FA689A63BC
:1005100000233B617B68DB68DB683B613B7C6FF3FE
:1005200086133B74BB7C6FF38613BB74BB7C6FF389
:100530004103BB74BB7C6FF3C303BB747B68DB6894
:100540003A69DA607868FFF753FE7B68DB78012B45
:1005500039D13B7A052262F344033B723B7A43F084
:1005600020033B727B68DB68BA689A602BE07B688B
:10057000DB68DB683B613B7C43F040033B747B689A
:10058000DB683A69DA607868FFF732FE0023FB60C7
:10059000BB7B43F00103BB73BB7B43F00403BB7322
:1005A000BB7B43F00803BB737B685B7A002B03D0F3
:1005B000BB7B43F01003BB737B68DB68FA689A630C
:1005C000142002F059FB7B68DB78012B10D17B688B
:1005D000DB689B68BB603B7A052262F344033B7295
:1005E0003B7A43F020033B727B68DB68BA689A6011
:1005F000FB7D18461837BD4680BD00BF80B485B06E
:1006000000AF78600023FB730023BB603B7A43F0AC
:1006100001033B727B68DB687A68D2689168BA68CC
:100620000A439A60FB7B18461437BD465DF8047B8D
:10063000704700BF80B485B000AF78600023FB73C3
:100640000023BB603B7A43F001033B727B68DB68AD
:100650007A68D2689168BA68D2430A409A60FB7B94
:1006600018461437BD465DF8047B704780B586B0E8
:1006700000AF786039600023FB7400237B610023A6
:10068000FB60FB6843F02003FB603B68DBB203F0D8
:100690001F03DBB203F01F039B01FA6822F4F86228
:1006A0001343FB607B68DB68FA681A617B68DB6870
:1006B0001B69FB607B6901337B617B69094A93425B
:1006C00000D906E0FB685B0903F00103DBB2012BF4
:1006D000ECD0032002F0ACFAFB7C18461837BD467C
:1006E00080BD00BF400D030080B586B000AF7860CC
:1006F0000023FB7400237B610023FB60FB6843F055
:100700001003FB607B68DB68FA681A617B68DB6852
:100710001B69FB607B6901337B617B69094A9342FA
:1007200000D906E0FB681B0903F00103DBB2012BD3
:10073000ECD0032002F07CFAFB7C18461837BD464B
:1007400080BD00BF400D030080B584B000AF78606D
:100750000B46FB700023FB737B68DB68DB68BB60C8
:10076000FB7A6FF34513FB72FB7A6FF38613FB7210
:10077000FB78012B04D1FB7A43F02003FB7206E0E7
:10078000FB78002B03D1FB7A43F04003FB727B68BC
:10079000DB68BA68DA60322002F06EFAFB7B18463A
:1007A0001037BD4680BD00BF80B483B000AF786015
:1007B0007B68DB685B6903F0010318460C37BD46B4
:1007C0005DF8047B704700BF80B582B000AF7860F1
:1007D0007868FFF7E9FF0346012B14BF01230023CC
:1007E000DBB218460837BD4680BD00BF80B485B077
:1007F00000AF78600023FB607B68DB685B69FB60AF
:100800007B68DB689B69FA681340FB60FB681846ED
:100810001437BD465DF8047B704700BF80B485B0D7
:1008200000AF78600B46FB707B681B691B68FB6040
:10083000FB7803F00303DAB23B7B62F301033B7303
:100840007B681B69FA681A601437BD465DF8047B43
:10085000704700BF80B58CB000AF7860002387F888
:100860002B3000237B6200233B620023FB610023CB
:10087000BB6100237B617B68D3F80C3100221A60D6
:100880007B681B691B683B6297F821306FF3C403D8
:1008900087F821307B681B693A6A1A607B68DB7ACB
:1008A000012B33D178680321FFF7B8FF7B68DB6841
:1008B00080225A624023FB838023BB837B68DB68F2
:1008C000FA699A62BA8BFB8B13449BB23B838023F9
:1008D0007B837B68DB68BA69C3F804213A8B7B8B26
:1008E00013449BB23B8300237B837B68DB68BA693C
:1008F000C3F808213A8B7B8B13449BB23B830023C4
:100900007B837B68DB68BA69C3F80C2178681021A7
:10091000FFF7ACFE7868FFF7E7FE7B681B690022F3
:100920001A617B681B6900225A617B681B694FF062
:10093000FF329A617B681B690022DA610023FB6247
:100940003AE07A68FB6A04339B0013449B681B6897
:100950007B6297F8273023F07F03DBB2002B0ED0A9
:1009600000237B6297F8273043F0400387F8273055
:1009700097F8273043F0080387F8273001E0002379
:100980007B627A68FB6A04339B0013449B687A6A33
:100990001A607A68FB6A04339B0013449B68002248
:1009A0001A617A68FB6A04339B0013449B68FF2238
:1009B0009A60FB6A0133FB627B685B781A46FB6ACC
:1009C0009A42BED80023FB6235E07A68FB6A143392
:1009D0009B0013445B681B68FB60FB7B23F07F0379
:1009E000DBB2002B0AD00023FB60FB7B43F040030B
:1009F000FB73FB7B43F00803FB7301E00023FB6008
:100A00007A68FB6A14339B0013445B68FA681A60C7
:100A10007A68FB6A14339B0013445B6800221A61F6
:100A20007A68FB6A14339B0013445B68FF229A6068
:100A3000FB6A0133FB627B685B781A46FB6A9A4269
:100A4000C3D800237B617B7D43F001037B757B680A
:100A50001B697A68126911697A69D24311407A690F
:100A60000A431A617B68DB78012B1BD100233B61B1
:100A70003B7C43F001033B743B7C43F002033B743B
:100A80003B8A402262F38A033B82BB7C43F0010332
:100A9000BB747B8A402262F349037B827B681B69BB
:100AA0003A691A63786800F007F897F82B3018460F
:100AB0003037BD4680BD00BF80B584B000AF7860E0
:100AC0000023FB730023BB607B68DB6800229A6114
:100AD0007B68DB686FF080425A617868FFF766FBDD
:100AE0007B68DB78002B03D13B7A43F010033B7229
:100AF0007B7A43F008037B727B7A43F010037B72AE
:100B00007B7A43F020037B72BB7A43F00403BB7211
:100B1000BB7A43F00803BB723B7A43F008033B7295
:100B2000BB7A43F01003BB72BB7A43F02003BB7265
:100B3000FB7A43F04003FB723B7A43F004033B72C1
:100B40007B68DB687A68D2689169BA68D2431140E1
:100B5000BA680A439A61FB7B18461037BD4680BDD0
:100B600080B485B000AF78600023FB737B681B699D
:100B70009B68BB603B7AC3F34103DBB2022B09D015
:100B8000032B04D0012B02D00323FB7305E00223C7
:100B9000FB7302E00123FB7300BFFB7B1846143795
:100BA000BD465DF8047B704780B487B000AF7860C5
:100BB0000023FB750023BB607B681B699B683B615E
:100BC0007B689B691B68FB603B7CC3F34103DBB222
:100BD000022B04D0BB896FF30A03BB8105E0BB89FC
:100BE000032262F30A03BB8100BF7B689B69FA683A
:100BF0001A607B7A43F001037B727B681B697A6819
:100C000012695168BA68D2431140BA680A435A60FF
:100C1000FB7D18461C37BD465DF8047B704700BF5E
:100C200080B487B000AF786039600023FB74002384
:100C3000FB600023BB603B685B78012B0FD13B68F6
:100C40001B787A6804339B0013449B687B613B6884
:100C50001B781A46012393409BB23B810EE03B6810
:100C60001B787A6814339B0013445B687B613B6894
:100C70001B781A46012393409BB27B817B691B68DA
:100C8000FB607B7B23F07F03DBB2002B27D13B682B
:100C90009B689BB2C3F30A039AB2BB8962F30A034F
:100CA000BB813B68DB7803F00303DAB2BB7B62F302
:100CB0008303BB733B68DB88DBB203F00F03DAB25C
:100CC000FB8962F38913FB81FB7B43F01003FB7309
:100CD0007B7B43F080037B73FA687B691A607B68D7
:100CE0001B697A681269D169BA680A43DA61FB7CC8
:100CF00018461C37BD465DF8047B704780B487B04A
:100D000000AF786039600023FB740023FB60002390
:100D1000BB603B685B78012B0FD13B681B787A681E
:100D200004339B0013449B687B613B681B781A4625
:100D3000012393409BB23B810EE03B681B787A68AD
:100D400014339B0013445B687B613B681B781A4635
:100D5000012393409BB27B817B7B6FF3C7137B7333
:100D6000FA687B691A607B681B697A681269D169C5
:100D7000BA68D2430A40DA61FB7C18461C37BD468C
:100D80005DF8047B704700BF80B588B000AF786025
:100D900039600023FB770023BB6100237B610023C4
:100DA0003B613B685B78012B40F0AB803B681B7874
:100DB0007A6804339B0013449B681B687B613B6823
:100DC0001B787A6804339B0013449B681B693B6162
:100DD0003B685B69002B09D13B696FF312033B61F0
:100DE0007B8A012262F3CC037B8222E03B685B6951
:100DF000C3F312023B6962F312033B613B685A6919
:100E00003B689B6813445A1E3B689B68B2FBF3F334
:100E10009BB2C3F309039AB27B8A62F3CC037B8251
:100E20003B68DB78012B04D1FB7C012262F3461383
:100E3000FB743B681B787A6804339B0013449B68FF
:100E40003A691A617B68DB78012B0AD13B681B7811
:100E50007A6804339B0013449B683A6812695A61AC
:100E600015E03B68DB78012B11D03B685B69002BF8
:100E70000DD03B681B781A4601239340BB617B6809
:100E80001B697A681269516BBA690A435A633B68F5
:100E9000DB78012B14D17B681B699B68FB60FB68C6
:100EA000C3F30D239BB203F00103002B04D1FB7DA0
:100EB00043F02003FB7503E0FB7D43F01003FB755B
:100EC000FB7D43F00403FB75FB7D43F08003FB7562
:100ED0003B681B787A6804339B0013449B687A69EB
:100EE0001A603B68DB78012B40F089803B68D96849
:100EF0003B681A783B685B699BB27868FFF7BEF97C
:100F00007DE03B681B787A6814339B0013445B6870
:100F10001B687B613B681B787A6814339B00134421
:100F20005B681B693B613B685B69002B0DD13B68CB
:100F30009B68C3F312023B6962F312033B617B8A35
:100F4000012262F3CC037B8220E03B685A693B6854
:100F50009B6813445A1E3B689B68B2FBF3F39BB239
:100F6000C3F309039AB27B8A62F3CC037B827B8A48
:100F7000C3F3C9039BB21A463B689B6803FB02F3A9
:100F8000C3F312023B6962F312033B613B681B78B7
:100F90007A6814339B0013445B683A691A617B6872
:100FA000DB78012B09D13B681B787A6814339B00EE
:100FB00013445B683A6812695A613B68DB78012B1D
:100FC0000CD13B685B79002B04D0FB7D43F0200300
:100FD000FB7503E0FB7D43F01003FB75FB7D43F0E5
:100FE0000403FB75FB7D43F08003FB753B681B78B6
:100FF0007A6814339B0013445B687A691A60FB7F3C
:1010000018462037BD4680BD80B489B000AF7860F7
:1010100039600023FB770023BB6100233B61002381
:10102000BB603B685B78012B70D17B689B697B61FF
:101030007B691B683B617B691B69BB603B685B69C3
:10104000002B09D13B7A6FF306033B72BB7A012276
:1010500062F3C403BB7223E03B685A693B689B6838
:101060009A420ED93B689A683B685A613B689B6814
:10107000DBB203F07F03DAB23B7A62F306033B7222
:1010800009E03B685B69DBB203F07F03DAB23B7ACD
:1010900062F306033B72BB7A012262F3C403BB72A4
:1010A000BA687B691A617B68DB78012B09D13B68E0
:1010B0001B787A6804339B0013449B683A68126972
:1010C0005A61FB7C43F00403FB74FB7C43F0800318
:1010D000FB743A697B691A607B68DB78002B76D1F8
:1010E0003B685B69002B72D03B681B781A46012372
:1010F00093401A46BB691343BB617B681B697A68DE
:101100001269516BBA690A435A6360E03B681B7805
:101110007A6814339B0013445B681B683B613B682F
:101120001B787A6814339B0013445B681B69BB60AF
:101130003B685B69002B0FD13B689B68DBB203F017
:101140007F03DAB23B7A62F306033B72BB7A012279
:1011500062F3C403BB7212E03B689A683B685A6151
:101160003B689B68DBB203F07F03DAB23B7A62F341
:1011700006033B72BB7A012262F3C403BB723B6875
:101180001B787A6814339B0013445B68BA681A6151
:101190007B68DB78012B09D13B681B787A681433B4
:1011A0009B0013445B683A6812695A61FB7C43F008
:1011B0000403FB74FB7C43F08003FB743B681B78E7
:1011C0007A6814339B0013445B683A691A60FB7FAA
:1011D00018462437BD465DF8047B704780B487B05D
:1011E00000AF786039600023FB750023FB603B682B
:1011F0005B78012B1CD13B681B787A6804339B0019
:1012000013449B683B613B691B68FB60FB7B23F0DD
:101210007F03DBB2002B03D0FB7B43F04003FB7367
:10122000BB7B43F02003BB73FA683B691A6011E093
:101230003B681B787A6814339B0013445B683B61FE
:101240003B691B68FB60BB7B43F02003BB73FA6800
:101250003B691A60FB7D18461C37BD465DF8047B70
:10126000704700BF80B487B000AF7860396000235A
:10127000FB740023FB603B685B78012B08D13B6863
:101280001B787A6804339B0013449B687B6107E0FA
:101290003B681B787A6814339B0013445B687B615E
:1012A0007B691B68FB60BB7B6FF34513BB733B68BB
:1012B000DB78032B03D03B68DB78022B03D1FB7B6D
:1012C00043F01003FB73FA687B691A60FB7C1846D5
:1012D0001C37BD465DF8047B704700BF80B485B005
:1012E00000AF78607B681B699B69FB607B681B694A
:1012F000DB69FA681340FB60FB681B0C1846143767
:10130000BD465DF8047B704780B485B000AF78605F
:101310000B46FB70FB787A6814339B0013445B68C0
:101320009B68FB607B681B695B69FA681340FB6024
:10133000FB6818461437BD465DF8047B704700BF54
:1013400080B485B000AF78607B681B699B69FB60E7
:101350007B681B69DB69FA681340FB60FB689BB222
:1013600018461437BD465DF8047B704780B487B0DB
:1013700000AF786000233B61FB7C43F0C003FB744B
:10138000BB7C012262F3C403BB743B7C182262F372
:1013900006033B747B685B6D3A691A617B68DB7896
:1013A000012B16D10023FB607B685B6D7A6802F22B
:1013B000CC525A617B685B6D1B68FB60FB7B43F022
:1013C0008003FB734FF08023FB607B685B6DFA68E2
:1013D0001A601C37BD465DF8047B704780B485B049
:1013E00000AF78607B689B7A002B1BD07B681B6901
:1013F0009B68FB603B7B03F00103DBB2002B11D049
:101400007B6803F586731B68BB603B7A6FF341030F
:101410003B723B7A6FF300033B727B68D3F80C316D
:10142000BA681A601437BD465DF8047B704700BF88
:1014300080B582B002AF084B009308480121084AEA
:10144000084B00F067FB084B02221A70064B1B7812
:101450001846BD4680BD00BF000000201C020020D1
:10146000640100201C000020BC01002080B400AFFB
:10147000034B1B781846BD465DF8047B704700BFE0
:10148000BC01002080B483B000AF78607B6800228C
:101490001A707B6800225A707B6800229A707B6801
:1014A0000022DA707B6800221A717B6800225A7170
:1014B000034B1B7818460C37BD465DF8047B70471C
:1014C000BC01002080B483B000AF78607B6800224C
:1014D0001A707B6800225A707B6800229A707B68C1
:1014E0000022DA707B6800221A717B6800225A7130
:1014F0007B6800229A717B680022DA717B68002287
:101500001A727B6800225A727B6800229A727B688A
:101510000022DA727B6800221A737B6800225A73F9
:101520007B6800229A737B680022DA737B68002252
:101530001A747B6800225A747B6800229A747B6854
:101540000022DA74034B1B7818460C37BD465DF851
:10155000047B7047BC01002080B584B000AF034617
:101560003960FB715F4B1B78012B01D00223B5E082
:10157000FB793B7200237B727A7A3B681B781343BA
:10158000DBB27B727B7ADAB23B685B785B00DBB202
:101590001343DBB2DBB27B727B7ADAB23B689B78B7
:1015A0009B00DBB21343DBB2DBB27B727B7ADAB235
:1015B0003B68DB78DB00DBB21343DBB2DBB27B7270
:1015C0007B7ADAB23B681B791B01DBB21343DBB2D7
:1015D000DBB27B727B7ADAB23B685B795B01DBB2B0
:1015E0001343DBB2DBB27B727B7ADAB23B689B7966
:1015F0009B01DBB21343DBB2DBB27B727B7ADAB2E4
:101600003B68DB79DB01DBB21343DBB2DBB27B721D
:101610000023BB72BA7A3B681B7A1343DBB2BB72FE
:10162000BB7ADAB23B685B7A5B00DBB21343DBB2B6
:10163000DBB2BB72BB7ADAB23B689B7A9B00DBB24F
:101640001343DBB2DBB2BB72BB7ADAB23B68DB7A44
:10165000DB00DBB21343DBB2DBB2BB72BB7ADAB2C4
:101660003B681B7B1B01DBB21343DBB2DBB2BB72FB
:10167000BB7ADAB23B685B7B5B01DBB21343DBB264
:10168000DBB2BB72BB7ADAB23B689B7B9B01DBB2FD
:101690001343DBB2DBB2BB72BB7ADAB23B68DB7BF3
:1016A000DB01DBB21343DBB2DBB2BB723B681B7CFA
:1016B000DBB2FB723B685B7CDBB23B733B689B7CC1
:1016C000DBB27B733B68DB7CDBB2BB7307F10803E7
:1016D00005481946072200F0E3F9012318461037A0
:1016E000BD4680BDBC0100201C02002080B584B036
:1016F00000AF0346FB7100233B7200237B72002383
:10170000BB720023FB7200233B7300237B73002317
:10171000BB730A4B1B78012B01D0022309E0FB7934
:101720003B7207F1080306481946072200F0B8F992
:10173000012318461037BD4680BD00BFBC01002004
:101740001C02002080B483B000AF78607B68002268
:101750001A707B6800225A707B6800229A707B683E
:101760000022DA707B6800221A717B6800225A71AD
:101770007B6800229A717B680022DA717B68002204
:101780001A727B6800225A727B6800229A727B6808
:101790000022DA727B6800221A737B6800225A7377
:1017A000034B1B7818460C37BD465DF8047B704729
:1017B000BC01002080B400AF034B02221A70BD466A
:1017C0005DF8047B704700BFBC01002080B483B08B
:1017D00000AF0346FB71044B02221A700C37BD4662
:1017E0005DF8047B704700BFBC01002080B400AFEF
:1017F000034B01221A70BD465DF8047B704700BFA1
:10180000BC01002080B400AF034B02221A70BD4619
:101810005DF8047B704700BFBC01002080B400AFBE
:10182000034B02221A70BD465DF8047B704700BF6F
:10183000BC01002080B400AF034B02221A70BD46E9
:101840005DF8047B704700BFBC01002080B400AF8E
:10185000034B02221A70BD465DF8047B704700BF3F
:10186000BC01002080B582B002AF002300930323A7
:10187000019306484FF4C0410122002303F062F8AF
:10188000024B4FF4C0425A83BD4680BD001802404F
:1018900080B582B002AF0223009300230193044875
:1018A00001210022002303F04DF8BD4680BD00BF9A
:1018B0000000024080B582B000AF0F4B7B600F4B41
:1018C0003B6007E03B681A1D3A607A68111D796039
:1018D00012681A603B680A4A9342F3D309480A49DE
:1018E0004FF000028842B8BF40F8042BFADB00F04A
:1018F00077FB0837BD4680BD464F0008000000203A
:10190000BC010020BC0100205C08002080B400AFB6
:10191000FEE700BF80B582B000AF78600B46FB7079
:10192000786881210422032302F04EFE78680121A9
:101930000422032302F048FE002318460837BD4660
:1019400080BD00BF80B582B000AF78600B46FB70F1
:101950007868812102F08EFE7868012102F08AFE0B
:10196000002318460837BD4680BD00BF80B584B04F
:1019700000AF786039600023FB810023BB603B68C7
:101980001B7803F06003002B41D0202B78D13B68FB
:101990005B78023B092B33D801A252F823F000BF39
:1019A000F5190008D7190008011A0008011A0008E3
:1019B000011A0008011A0008011A0008011A00089B
:1019C000E3190008C91900083B685B88DBB21A46B6
:1019D0002E4B1A601AE078682C49012203F0F4F9C2
:1019E00014E03B685B881B0A9BB2DBB21A46284BAB
:1019F0001A600BE078682649012203F0E5F905E05A
:101A00007868396801F0ACFD02233AE038E03B68C1
:101A10005B780A2B27D00B2B2BD0062B30D13B68C1
:101A20005B881B0A9BB2222B08D13B68DB88C52B45
:101A300028BFC523FB81174BBB600DE03B685B886B
:101A40001B0A9BB2212B07D1134BBB603B68DB8881
:101A5000092B28BF0923FB81FB897868B9681A46DE
:101A600003F0B2F90CE078680C49012203F0ACF9FC
:101A700006E03B685B88DBB21A46084B1A6000BF81
:101A8000002318461037BD4680BD00BFC4010020AA
:101A9000C80100206C0000205A000020C001002076
:101AA00080B584B000AFF860B9601346FB80FB6876
:101AB00093F81231032B05D1FB88F8688121BA68AD
:101AC00002F054FE002318461037BD4680BD00BF0B
:101AD00080B483B000AF03463960FB713B682222BB
:101AE0001A80034B18460C37BD465DF8047B7047DF
:101AF0004800002080B582B000AF78600B46FB70D4
:101B00007868812102F0E6FE002318460837BD46BA
:101B100080BD00BF80B584B000AFF8607A603B60E4
:101B20000B46FB72F86800F0E9FFF86800F01CF85B
:101B3000FB683A68C3F8E425FB68BA69C3F8E8258E
:101B4000FB687A68C3F8EC25FB7AF868194602F05E
:101B5000B9FCFB68D3F8E8351B689847F86801F0D2
:101B60004FF81037BD4680BD80B483B000AF7860B9
:101B7000002318460C37BD465DF8047B704700BF54
:101B800080B584B000AF786007F108037868194623
:101B900001F09EFC3B7A03F01F03012B0AD0022BBD
:101BA0000FD0002B14D107F108037868194601F013
:101BB000B1F816E007F108037868194601F0FAF861
:101BC0000FE007F108037868194601F027F908E0EB
:101BD0003B7A23F07F03DBB27868194602F002FEFD
:101BE00000BF002318461037BD4680BD80B584B0C5
:101BF00000AF78600B46FB70FB78002B44D17B680C
:101C000003F55D73FB607B6893F81131032B4ED1B4
:101C1000FB68DA69FB689B689A4220D9FB68DA693D
:101C2000FB689B68D21AFB68DA617B68DB78012B62
:101C300006D1FB68DA68FB689B681A44FB68DA60C7
:101C4000FB68D968FB689A68FB68DB69934228BF28
:101C500013469BB278681A4603F0EAF827E07B68DF
:101C6000D3F8E4351B69002B0AD07B6893F8123156
:101C7000032B05D17B68D3F8E4351B697868984756
:101C8000786803F0E9F812E07B68D3F8E4359B69E3
:101C9000002B0CD07B6893F81231032B07D17B68A3
:101CA000D3F8E4359B69FA787868114698470023A1
:101CB00018461037BD4680BD80B584B000AF78604F
:101CC0000B46FB70FB78002B6CD17B6803F58E73A1
:101CD000FB607B6893F81131022B56D1FB68DA69FF
:101CE000FB689B689A421CD9FB68DA69FB689B68B1
:101CF000D21AFB68DA617B68DB78012B06D1FB68BE
:101D0000DA68FB689B681A44FB68DA60FB68DA688B
:101D1000FB68DB699BB2786811461A4603F074F8D9
:101D200033E0FB681B6AFA689268B3FBF2F102FBCE
:101D300001F29B1A002B14D1FB681A6AFB689B689E
:101D40009A420ED3FB681A6AFB685B6A9A4208D211
:101D500078680021002203F057F8FB6800225A62DD
:101D600013E07B68D3F8E435DB68002B0AD07B688E
:101D700093F81231032B05D17B68D3F8E435DB6887
:101D800078689847786803F07FF87B6893F8163195
:101D9000012B1AD1786800F01DF87B68002283F8C7
:101DA000162112E07B68D3F8E4355B69002B0CD078
:101DB0007B6893F81231032B07D17B68D3F8E435A5
:101DC0005B69FA78786811469847002318461037FF
:101DD000BD4680BD80B483B000AF78607B681B696E
:101DE000044A12685A60002318460C37BD465DF855
:101DF000047B70471008002080B582B000AF786087
:101E0000786800214022002302F0DEFB7868802100
:101E10004022002302F0D8FB7B68012283F81221C4
:101E20007B68D3F8E8355B687A6892781046984703
:101E3000002318460837BD4680BD00BF80B582B07C
:101E400000AF78607B68D3F8E8351B6998477B68FA
:101E500093F813217B6883F812217B68032283F8AF
:101E60001221002318460837BD4680BD80B582B0D8
:101E700000AF78607B6893F812217B6883F81321A8
:101E80007B68042283F812217B68D3F8E835DB688D
:101E90009847002318460837BD4680BD80B582B0FC
:101EA00000AF78607B68D3F8E435DB69002B05D0A0
:101EB0007B68D3F8E435DB697868984700231846D7
:101EC0000837BD4680BD00BF80B582B000AF7860E6
:101ED0000B46FB707B68D3F8E4351B68FA787868AA
:101EE000114698477B68D3F8E8359B6898470023EC
:101EF00018460837BD4680BD80B582B000AF786017
:101F00000B46FB707B68D3F8E4355B68FA78786839
:101F100011469847002318460837BD4680BD00BFCC
:101F200080B582B000AF78607B68D3F8E4351B6A77
:101F300078689847002318460837BD4680BD00BF23
:101F400080B582B000AF78607B68D3F8E4355B6A17
:101F500078689847002318460837BD4680BD00BF03
:101F600080B582B000AF78607B68D3F8E8355B69F4
:101F700098477B68012283F815210023184608370B
:101F8000BD4680BD80B582B000AF78607B68D3F875
:101F9000E8359B6998477B68D3F8E4355B687868D7
:101FA000002198477B68002283F8152100231846FA
:101FB0000837BD4680BD00BF80B582B000AF40236A
:101FC0003B7000237B700723BB700023FB70002352
:101FD0003B713B46184602F085FD0837BD4680BD83
:101FE00080B594B000AF002387F84F3000F0E0FCDC
:101FF000FFF7E2FFFFF736FCFFF74AFC00F00CFBAF
:10200000FFF716FA3B1D1846FFF73CFA07F13403B9
:102010001846FFF797FB07F120031846FFF752FA1F
:1020200007F10C031846FFF74DFA002387F84E30EE
:102030007F2387F84D3097F94E2097F94D301344A0
:10204000DA0F13445B1087F84C30C42387F84B3009
:102050003C2387F84A3097F94D2097F94E30D21A31
:1020600097F94A1097F94B30CB1A92FBF3F387F8A4
:102070004930002387F848307F2387F8473097F9A5
:10208000482097F947301344DA0F13445B1087F860
:102090004630C42387F845303C2387F8443097F90D
:1020A000472097F94830D21A97F9441097F94530EC
:1020B000CB1A92FBF3F387F84330FFF7D7F90346C7
:1020C000012B40F0B8805E4B4FF400521A835D4BF9
:1020D0001B6903F00103002B10D097F84F30002B41
:1020E0000CD1012387F84F30012387F8203007F106
:1020F000200303201946FFF72FFA12E0514B1B690A
:1021000003F00103002B0CD197F84F30012B08D1BD
:10211000002387F84F30002387F820300320FFF793
:10212000E5FA49482921012202F032FD47482B21D6
:10213000012202F02DFD46482D21012202F028FD4A
:10214000414B1B785BB213F10E0F09DB3E4B1B7842
:102150005BB20E2B04DC97F84C3087F8303028E067
:10216000394B1B785AB297F94A300A3B9A4204DB42
:1021700097F84D3087F830301BE0334B1B785AB25C
:1021800097F94B300A339A4204DC97F84E3087F8BF
:1021900030300EE02C4B1B78DAB297F8493012FB46
:1021A00003F3DAB297F84C301344DBB2DBB287F8B2
:1021B0003030264B1B785BB213F10E0F09DB234B3B
:1021C0001B785BB20E2B04DC97F8463087F8313071
:1021D0002AE01E4B1B785AB297F94A300A3B9A42C2
:1021E00004DB97F8483087F831301DE0174B1B7837
:1021F0005AB297F94B300A339A4204DC97F84730C9
:1022000087F8313010E097F943305B42DAB20F4B78
:102210001B78DBB212FB03F3DAB297F846301344B3
:10222000DBB2DBB287F8313007F120030320194617
:10223000FFF792F903E0024B4FF400525A833CE758
:102240000018024000000240150800201408002079
:102250001608002080B483B000AF0346FB71054B25
:1022600000221A70034AFB7913700C37BD465DF8E3
:10227000047B70470238024080B483B000AF03464D
:10228000FB71044AFB7913600C37BD465DF8047B93
:10229000704700BF6000474280B485B000AF7860EF
:1022A0000023FB60094B9B68FB60FB6823F0030382
:1022B000FB60FA687B681343FB60044AFB68936029
:1022C0001437BD465DF8047B704700BF00380240FC
:1022D00080B400AF054B9B68DBB203F00C03DBB2AC
:1022E0001846BD465DF8047B704700BF00380240C9
:1022F00080B483B000AF78600B46FB70FB78002B96
:1023000006D00949084B1A6B7B6813430B6306E040
:102310000549054B1A6B7B68DB4313400B630C3795
:10232000BD465DF8047B70470038024080B483B03E
:1023300000AF78600B46FB70FB78002B06D0094994
:10234000084B5A6B7B6813434B6306E00549054B0A
:102350005A6B7B68DB4313404B630C37BD465DF81B
:10236000047B70470038024080B483B000AF7860CF
:102370000B46FB70FB78002B06D00949084B5A6CC2
:102380007B6813434B6406E00549054B5A6C7B6838
:10239000DB4313404B640C37BD465DF8047B70474C
:1023A0000038024080B483B000AF78600B46FB7009
:1023B000FB78002B06D00949084B1A6A7B68134347
:1023C0000B6206E00549054B1A6A7B68DB43134044
:1023D0000B620C37BD465DF8047B70470038024045
:1023E00080B483B000AF78600B46FB70FB78002BA5
:1023F00006D00949084B5A6A7B6813434B6206E0D2
:102400000549054B5A6A7B68DB4313404B620C3726
:10241000BD465DF8047B70470038024080B487B049
:1024200000AF0346FB710023FB6000237B610023A8
:10243000FB74FB795B09DBB2FB60FB68012B03D10A
:10244000124B1B687B6109E0FB68022B03D10F4B29
:102450001B6F7B6102E00D4B5B6F7B61FB7903F0CF
:102460001F03FB60FB687A6922FA03F303F00103A0
:10247000002B02D00123FB7401E00023FB74FB7CE2
:1024800018461C37BD465DF8047B70470038024093
:1024900080B483B000AF03463960FB7197F9073011
:1024A000002B0BDA0D49FB7903F00F03043B3A686C
:1024B000D2B21201D2B20B441A7609E0084997F958
:1024C00007303A68D2B21201D2B20B4483F800232B
:1024D0000C37BD465DF8047B704700BF00ED00E09F
:1024E00000E100E080B582B000AF78607B68013B1E
:1024F000B3F1807F01D301230FE00A4A7B68013BDF
:1025000053604FF0FF300F21FFF7C2FF054B002251
:102510009A60044B07221A60002318460837BD460C
:1025200080BD00BF10E000E080B582B000AF374B47
:102530001B680133354A1360354B1B68002B04D0F0
:10254000334B1B68013B324A1360AFF3008000231A
:10255000FB7152E0FB792F4A9B0013445B68002B10
:1025600048D0FB792B4A9B0013445B681B7B002BF4
:1025700040D0FB79274A9B0013445B689B68002B83
:1025800038D0FB79234A9B0013445B689A68013A70
:102590009A60FB791F4A9B0013445B689B68002B81
:1025A00028D1FB791B4A9B0013445B681A69FB79AD
:1025B00018499B000B445B685B6918469047FB79A0
:1025C000144A9B0013445A68FB7912499B000B4440
:1025D0005B681B689360FB790E4A9B0013445B6841
:1025E0005B68002B06D1FB790A4A9B0013445B68A9
:1025F00000221A73FB790133FB71064B1B78FA79C1
:102600009A42A7D30837BD4680BD00BFD001002045
:10261000D4010020DC01002080B500AF0C4B1B680A
:102620000C4AA2FB03239B091846FFF75BFF0346F6
:10263000002B00D0FEE7064B1B689B09064AA2FB55
:1026400003239B0A054A1360054B01221A7080BDC3
:10265000A4010020D34D62101791650218080020D4
:10266000D801002080B483B000AF03463960FB710D
:102670003B6812221A80034B18460C37BD465DF8A2
:10268000047B70478001002080B483B000AF034614
:102690003960FB713B6804221A80034B18460C37E3
:1026A000BD465DF8047B7047A001002080B582B074
:1026B00000AF03463960FB71FB79002B05D1084858
:1026C00008493A6800F060FF04E0074805493A68A5
:1026D00000F05AFF034B18460837BD4680BD00BFC7
:1026E000B84E00081C080020D84E000880B582B003
:1026F00000AF03463960FB71044805493A6800F0B1
:1027000043FF034B18460837BD4680BDF84E00080E
:102710001C08002080B582B000AF03463960FB7111
:10272000FB79002B05D1084808493A6800F02CFFD6
:1027300004E0074805493A6800F026FF034B1846B5
:102740000837BD4680BD00BF0C4F00081C080020A4
:102750001C4F000880B582B000AF03463960FB71A2
:10276000FB79002B05D1084808493A6800F00CFFB6
:1027700004E0054805493A6800F006FF034B184697
:102780000837BD4680BD00BF2C4F00081C08002044
:1027900080B582B000AF03463960FB71FB79002B36
:1027A00005D1084808493A6800F0EEFE04E0054803
:1027B00005493A6800F0E8FE034B18460837BD4665
:1027C00080BD00BF384F00081C08002080B487B0CF
:1027D00000AF7860396000237B6100233B610023F8
:1027E000FB6000237B6176E07B69012202FA03F340
:1027F0003B613B681A683B691340FB60FA683B69C0
:102800009A4265D17B681A687B695B00194603238D
:102810008B40DB431A407B681A607B681A683B6810
:102820001B7919467B695B0001FA03F31A437B6845
:102830001A603B681B79012B03D03B681B79022B84
:102840002ED17B689A687B695B00194603238B4015
:10285000DB431A407B689A607B689A683B685B79C7
:1028600019467B695B0001FA03F31A437B689A609F
:102870007B685A687B699BB2194601238B40DB4316
:102880001A407B685A607B685B683A6892791146A7
:102890007A6992B201FA02F292B21A437B685A60E4
:1028A0007B68DA687B699BB25B00032101FA03F362
:1028B000DB431A407B68DA607B68DA683B68DB7967
:1028C00019467B695B0001FA03F31A437B68DA60FF
:1028D0007B6901337B617B690F2B85D91C37BD4632
:1028E0005DF8047B704700BF80B483B000AF7860B0
:1028F0000B467B807B687A881A830C37BD465DF86F
:10290000047B704780B483B000AF78600B467B8057
:102910007B687A885A830C37BD465DF8047B704724
:1029200080B485B000AF78600B467B8013467B7027
:102930000023FB600023BB607B787A8802F00702EB
:1029400092009340FB607B88DB089BB218467B8833
:10295000DB089BB21A467B68083253F822207B883A
:1029600003F007039B0019460F238B40DB4302EA69
:1029700003017B6800F1080243F822107B88DB0822
:102980009BB21A467B68083253F82220FB68134337
:10299000BB607B88DB089BB21A467B680832B9684B
:1029A00043F822101437BD465DF8047B704700BF22
:1029B00080B500AF114A114B1B6843F0010313604F
:1029C0000E4B00229A600D4A0C4B1B6823F0847357
:1029D00023F480331360094B094A5A60074A074BB6
:1029E0001B6823F480231360044B0022DA6000F09C
:1029F0000BF8044B4FF000629A6080BD0038024033
:102A00001030002400ED00E080B483B000AF00235C
:102A10007B6000233B60354A344B1B6843F48033B2
:102A20001360324B1B6803F400333B607B68013357
:102A30007B603B68002B03D17B68B3F5A04FF0D1DE
:102A40002A4B1B6803F40033002B02D001233B60A8
:102A500001E000233B603B68012B42D1234A234B1A
:102A60001B6C43F080531364214A214B1B6843F4D1
:102A7000404313601D4A1D4B9B6893601B4A1B4BD0
:102A80009B6843F400439360184A184B9B6843F4D7
:102A9000A0539360154B174A5A60144A134B1B6896
:102AA00043F08073136000BF104B1B6803F000738A
:102AB000002BF9D0104B40F205621A600B4A0B4B09
:102AC0009B6823F003039360084A084B9B6843F01C
:102AD0000203936000BF054B9B6803F00C03082BB7
:102AE000F9D10C37BD465DF8047B704700380240D1
:102AF0000070004008544007003C024080B588B098
:102B000000AF786001200121FFF7F2FB4FF4C053C2
:102B1000BB6103237B7702233B770023BB77002332
:102B2000FB7707F1180335481946FFF74FFE334886
:102B30000B210A22FFF7F4FE30480C210A22FFF78E
:102B4000EFFE4FF40073BB6103237B7700233B77D9
:102B50000123BB770023FB7707F1180327481946A9
:102B6000FFF734FE4FF48063BB610123BB77012381
:102B7000FB7703237B7707F1180320481946FFF7FB
:102B800025FE1E480A210A22FFF7CAFE4FF48040A4
:102B90000121FFF7E9FB80200121FFF7C7FB4FF080
:102BA00080500121FFF7FEFB4FF4802001F00AFC6A
:102BB0004FF480233B6100233B7508237B75012381
:102BC000BB7507F11003184601F08AFB4FF4802013
:102BD00001F0F8FB2A233B7301237B730423BB73AF
:102BE0000123FB7307F10C03184601F00BFC4FF4B3
:102BF000802001F0E7FB2037BD4680BD0000024089
:102C000080B584B000AF78604FF4C06001F0E8FB9D
:102C100043233B7301237B730323BB730123FB73A8
:102C200007F10C03184601F0EDFB1037BD4680BDDF
:102C300080B485B000AF78600023FB607A681346EB
:102C40001B019B1ADB001A460A4BA3FB0213D21A84
:102C5000520813449B08BB60FB680133FB60FA68B1
:102C6000BB689A4200D900E0F6E71437BD465DF82C
:102C7000047B70472549922480B582B000AF78600C
:102C80007B684FF47A7202FB03F31846FFF7D0FF1C
:102C90000837BD4680BD00BF80B500AF174B9B7A9B
:102CA000002B25D0164A164B1B6923F0060313612F
:102CB0000120FFF7CFFA00BF3120FFF7AFFB03463B
:102CC000002BF9D00120FFF7D7FA00BF3920FFF71A
:102CD000A5FB0346002BF9D00220FFF7DDFA00BF69
:102CE000FFF7F6FA0346082BFAD10448FEF776FB05
:102CF0004FF4802001F066FB80BD00BF1C02002065
:102D000000ED00E080B500AF014800F097FC80BD09
:102D10001C02002080B584B000AF786039600023C9
:102D2000FB733B685B78092B39D801A252F823F07A
:102D3000812D0008952D00089F2D00088B2D00087F
:102D40009F2D0008632D0008592D00089F2D0008B5
:102D5000772D00086D2D00087868396800F036F985
:102D600022E07868396800F00DFA1DE0786839686B
:102D700000F046FA18E07868396800F0BBFA13E012
:102D80007868396800F0E6FA0EE07868396800F093
:102D90000BFB09E07868396800F072FB04E07868A2
:102DA000396800F0DDFB00BFFB7B18461037BD46DD
:102DB00080BD00BF80B584B000AF7860396000236B
:102DC000FB737B6893F81231032B1CD13B689B8803
:102DD000DBB2012B11D87B68D3F8E4359B687868A7
:102DE000396898473B68DB88002B0BD1FB7B002BB5
:102DF00008D1786802F030F80AE07868396800F0A5
:102E0000AFFB05E004E07868396800F0A9FB00BF7B
:102E1000FB7B18461037BD4680BD00BF80B584B02F
:102E200000AF786039600023FB733B689B88BB73FD
:102E30003B685B78012B39D0032B02D0002B6BD081
:102E4000BCE07B6893F81231022B02D0032B0DD02B
:102E500026E0BB7B002B08D0BB7B802B05D0BB7B47
:102E60007868194601F0BEFC1FE01EE03B685B88F5
:102E7000002B0AD1BB7B002B07D0BB7B802B04D05F
:102E8000BB7B7868194601F0ADFC7B68D3F8E4356C
:102E90009B68786839689847786801F0DDFF04E03E
:102EA0007868396800F05CFB00BF87E07B6893F8C6
:102EB0001231022B02D0032B0DD027E0BB7B002B5D
:102EC00008D0BB7B802B05D0BB7B7868194601F00E
:102ED00089FC20E01FE03B685B88002B15D1BB7BA1
:102EE000002B0ED0BB7B802B0BD0BB7B78681946A8
:102EF00001F0B4FC7B68D3F8E4359B6878683968E6
:102F00009847786801F0A8FF05E004E07868396820
:102F100000F026FB00BF51E07B6893F81231022BD2
:102F200002D0032B0DD043E0BB7B002B08D0BB7B32
:102F3000802B05D0BB7B7868194601F053FC3CE040
:102F40003BE0BB7B5BB2002B15DABB7B03F07F025F
:102F5000796813469B001344DB000B4403F58C7324
:102F60009B79002B03D0184B01221A601AE0164BF4
:102F700000221A6016E0BB7B5BB2002B12DBBA7B2F
:102F8000796813469B001344DB000B4403F55C7324
:102F90009B79002B03D00C4B01221A6002E00A4BF4
:102FA00000221A6078680849022201F00DFF04E04F
:102FB0007868396800F0D4FA00BF00BFFB7B184680
:102FC0001037BD4680BD00BFF401002080B584B03D
:102FD00000AF786039603B685B881B0A9BB2013B9D
:102FE000062B00F2B18001A252F823F0093000084C
:102FF0003B300008653000084931000849310008BD
:10300000353100083F3100087B68D3F8EC351B6888
:103010007A68917807F10A02084611469847F860E5
:103020003B68DB88402B04D07B6893F81231012B7E
:1030300002D108237B818CE08BE07B68D3F8E435F8
:103040009B6A7A68917807F10A0208461146984708
:10305000F860FB68013302221A707B68FA68C3F8D3
:10306000F02576E03B685B88DBB2052B5CD801A2DB
:1030700052F823F08D300008A7300008C130000856
:10308000DB300008F53000080F3100087B68D3F80A
:10309000EC355B687A68917807F10A0208461146B8
:1030A0009847F86045E07B68D3F8EC359B687A6810
:1030B000917807F10A02084611469847F86038E00F
:1030C0007B68D3F8EC35DB687A68917807F10A02FF
:1030D000084611469847F8602BE07B68D3F8EC353A
:1030E0001B697A68917807F10A02084611469847E9
:1030F000F8601EE07B68D3F8EC355B697A689178FC
:1031000007F10A02084611469847F86011E07B680B
:10311000D3F8EC359B697A68917807F10A02084682
:1031200011469847F86004E07868396800F018FAAA
:1031300024E00EE07868396800F012FA1EE0786842
:10314000396800F00DFA19E07868396800F008FA7B
:1031500014E07B89002B11D03B68DB88002B0DD05D
:103160003B68DA887B89934228BF13469BB27B81F8
:103170007B897868F9681A4601F026FE1037BD464B
:1031800080BD00BF80B584B000AF786039603B6817
:103190009B88002B2DD13B68DB88002B29D13B6815
:1031A0005B88DBB203F07F03FB737B6893F812311B
:1031B000032B04D17868396800F0D2F918E07B68F5
:1031C000FA7B83F81421FB7B7868194601F09CFB9D
:1031D000786801F041FEFB7B002B04D07B68022263
:1031E00083F8122104E07B68012283F8122104E0B5
:1031F00003E07868396800F0B3F91037BD4680BD48
:1032000080B582B000AF786039603B685B88DAB225
:10321000374B1A70364B1B78012B04D97868396804
:1032200000F09EF960E07B6893F81231022B02D027
:10323000032B1BD053E02E4B1B78002B12D02C4BB2
:103240001A787B6883F810217B68032283F81221A7
:10325000274B1B7878681946FEF736FE786801F030
:10326000FBFD41E0786801F0F7FD3DE0204B1B7865
:10327000002B12D17B68022283F812211C4B1A7892
:103280007B6883F810211A4B1B7878681946FEF783
:1032900033FE786801F0E0FD20E07B6893F81021B0
:1032A000134B1B789A4215D07B6893F810317868DD
:1032B0001946FEF721FE0E4B1A787B6883F8102121
:1032C0000B4B1B7878681946FEF7FEFD786801F015
:1032D000C3FD03E0786801F0BFFD05E004E0786815
:1032E000396800F03DF900BF0837BD4680BD00BF1A
:1032F0000002002080B582B000AF786039603B6882
:10330000DB88012B04D07868396800F029F91BE0CC
:103310007B6893F81231022B02D0032B06D00EE00B
:1033200078680B49012201F04FFD0DE07B6803F541
:10333000887378681946012201F046FD04E0786838
:10334000396800F00DF900BF0837BD4680BD00BFE9
:10335000F801002080B582B000AF786039607B68EA
:1033600093F81231023B012B13D80E4B01221A6045
:103370007B68D3F81831002B05D00A4B1B6843F04B
:103380000203084A136078680649022201F01CFD16
:1033900004E07868396800F0E3F800BF0837BD46FC
:1033A00080BD00BFFC01002080B584B000AF786014
:1033B00039600023FB733B685B88012B0ED17B686F
:1033C0000122C3F818217B68D3F8E4359B6878683C
:1033D00039689847786801F03FFD4BE03B685B88AF
:1033E000022B47D13B689B88DBB2002B42D17B6824
:1033F0001B695B68BB603B689B881B0A9BB2FB73C5
:10340000FB7B013B042B2BD801A252F823F000BF19
:1034100025340008313400083D34000849340008E0
:10342000553400083B7A012262F306133B7217E021
:103430003B7A022262F306133B7211E03B7A0322CD
:1034400062F306133B720BE03B7A042262F306132D
:103450003B7205E03B7A052262F306133B7200BF24
:10346000064ABB6813607B68012283F816217868DE
:1034700001F0F2FC1037BD4680BD00BF10080020EF
:1034800080B582B000AF786039607B6893F8123104
:10349000023B012B13D83B685B88012B0ED17B6864
:1034A0000022C3F818217B68D3F8E4359B6878685C
:1034B00039689847786801F0CFFC05E004E0786847
:1034C000396800F04DF800BF0837BD4680BD00BF29
:1034D00080B483B000AF786039607B6893F8CC2506
:1034E0003B681A707B6893F8CD253B685A707B68FF
:1034F00093F8CE359AB27B6893F8CF359BB21B0216
:103500009BB213449AB23B685A807B6893F8D035DB
:103510009AB27B6893F8D1359BB21B029BB21344DD
:103520009AB23B689A807B6893F8D2359AB27B68EE
:1035300093F8D3359BB21B029BB213449AB23B68FB
:10354000DA803B68DB881A467B68C3F840217B68D9
:10355000012283F811210C37BD465DF8047B7047CA
:1035600080B582B000AF786039607868802101F062
:1035700039F97868002101F035F97868FDF7F6FE31
:103580000837BD4680BD00BF80B586B000AFF8608B
:10359000B9607A600023FB75FB68002B33D0F868B4
:1035A00000F034F8034601339BB25B009AB27B68AB
:1035B0001A80FB7D5A1CFA751A46BB6813447A6858
:1035C0001288D2B21A70FB7D5A1CFA751A46BB6873
:1035D000134403221A7012E0FB7D5A1CFA751A4636
:1035E000BB681A44FB68591CF9601B781370FB7D9B
:1035F0005A1CFA751A46BB68134400221A70FB68FD
:103600001B78002BE8D11837BD4680BD80B485B04B
:1036100000AF78600023FB7305E0FB7B0133FB7395
:103620007B6801337B607B681B78002BF5D1FB7BCB
:1036300018461437BD465DF8047B704780B586B0E8
:1036400000AF786000237B617868FDF7BDF8034622
:10365000002B00F0B6807868FDF7C8F803463B61A0
:103660003B69002B01D10023ACE0BB7C03F00803D5
:10367000DBB2002B06D0786800F04CFA02467B697A
:1036800013437B61BB7C03F00403DBB2002B06D049
:10369000786800F071F902467B6913437B613B7CDB
:1036A00003F00203DBB2002B09D00023FB603B7B5D
:1036B00043F002033B737B68DB68FA685A61FB7C6A
:1036C00023F07F03DBB2002B06D0786800F0B6F859
:1036D00002467B6913437B617B7C03F00803DBB20A
:1036E000002B06D0786800F0E9F802467B691343A6
:1036F0007B613B7C03F00803DBB2002B06D07868CB
:1037000000F0B0FA02467B6913437B613B7C03F017
:103710001003DBB2002B06D0786800F0BDFA024639
:103720007B6913437B617B7C03F01003DBB2002BCE
:1037300006D0786800F0A4FB02467B6913437B61E6
:103740007B7C03F02003DBB2002B06D0786800F00E
:1037500027FC02467B6913437B61BB7C03F01003AB
:10376000DBB2002B06D0786800F056FC02467B697D
:1037700013437B61BB7C03F02003DBB2002B06D03C
:10378000786800F063FC02467B6913437B61FB7C35
:1037900003F04003DBB2002B06D0786800F016F887
:1037A00002467B6913437B613B7C03F00403DBB27D
:1037B000002B06D0786800F023F802467B6913439B
:1037C0007B617B6918461837BD4680BD80B584B0E3
:1037D00000AF7860094B1B685B6A786898470023E4
:1037E000FB60FB7B43F04003FB737B68DB68FA689C
:1037F0005A61012318461037BD4680BD6001002084
:1038000080B584B000AF78607B68DB685B68FB6084
:103810003B7B03F00403DBB2002B04D0064B1B6898
:103820009B6A786898477B68DB68FA685A6001236E
:1038300018461037BD4680BD6001002080B586B0B7
:1038400000AF78607B689B7A002B11D07B6803F512
:1038500086731B68FB603B7B6FF341033B733B7BD1
:103860006FF300033B737B68D3F80C31FA681A607E
:1038700000233B613B7C43F001033B747B681B6985
:103880007A68126951683A69D2430A405A600A4B11
:103890001B689B697868984700237B61FB7D43F038
:1038A0008003FB757B68DB687A695A6101231846DF
:1038B0001837BD4680BD00BF6001002080B586B0CE
:1038C00000AF78600023FB727B6893F81231FB72C3
:1038D000274B1B685B69786898477B681B699B6806
:1038E000FB6000237B617B7D43F008037B757B6875
:1038F000DB687A695A617B689B7A002B32D03B7B0C
:1039000003F00103DBB2002B2CD07B6893F8153158
:10391000012B27D1FB7ADBB2032B23D100233B61A0
:103920003B7C43F001033B747B68D3F80C317A682D
:10393000D2F80C2111683A690A431A603B7C43F0C3
:1039400002033B747B68D3F80C317A68D2F80C21FF
:1039500011683A690A431A60064A064B1B6943F02C
:1039600006031361012318461837BD4680BD00BF0A
:103970006001002000ED00E080B586B000AF786007
:1039800000233B610023BB607868FDF7D9FC7861B8
:10399000B4E07B6903F00103002B00F0A9803B69D0
:1039A000DBB27868194600F06BFB0346BB603B7ADC
:1039B00003F00103DBB2002B32D03B69012202FA93
:1039C00003F3FB607B681B697A681269516BFA68C4
:1039D000D2430A405A630023BB603B7A43F00103A1
:1039E0003B727A683B6904339B0013449B68BA6856
:1039F0009A60474B1B685B683A69D2B27868114697
:103A000098477B68DB78012B0AD13B69002B07D1F3
:103A10007B6893F81131042B02D17868FDF7A6FC7E
:103A20003B7A03F00803DBB2002B0DD00023BB6010
:103A30003B7A43F008033B727A683B6904339B008E
:103A400013449B68BA689A603B7A03F01003DBB2B8
:103A5000002B0DD00023BB603B7A43F010033B7278
:103A60007A683B6904339B0013449B68BA689A6088
:103A70003B7A03F04003DBB2002B0DD00023BB6088
:103A80003B7A43F040033B727A683B6904339B0006
:103A900013449B68BA689A603B7A03F00203DBB276
:103AA000002B0DD00023BB603B7A43F002033B7236
:103AB0007A683B6904339B0013449B68BA689A6038
:103AC0003B7A23F07F03DBB2002B11D07868396991
:103AD00000F064F90023BB603B7A43F080033B7243
:103AE0007A683B6904339B0013449B68BA689A6008
:103AF0003B6901333B617B695B087B617B69002B20
:103B00007FF447AF012318461837BD4680BD00BF7C
:103B10006001002080B586B000AF786000233B6173
:103B20000023FB607868FDF7D9FB78618FE07B6943
:103B300003F00103002B00F084803B69DBB278685E
:103B40001946FDF7E1FB0346FB603B7B03F00103F5
:103B5000DBB2002B48D00023FB603B7B43F001032A
:103B60003B737A683B6914339B0013445B68FA68C3
:103B70009A607B68DB78012B1FD17A683B6914332C
:103B80009B0013445B681B69BB6079683A69134604
:103B90009B001344DB000B4403F55E735B68BA685B
:103BA000C2F31202991A78683A6913469B001344CB
:103BB000DB00034403F562735960294B1B681B68E3
:103BC0003A69D2B27868114698477B68DB78012B56
:103BD0000AD13B69002B07D17B6893F81131052B83
:103BE00002D17868FDF7C2FB3B7B03F00203DBB236
:103BF000002B0DD00023FB603B7B43F002033B73A3
:103C00007A683B6914339B0013445B68FA689A60D6
:103C10003B7B03F00803DBB2002B12D0104B1B6878
:103C20009B68786898470023FB603B7B43F0080360
:103C30003B737A683B6914339B0013445B68FA68F2
:103C40009A603B6901333B617B695B087B617B69FF
:103C5000002B7FF46CAF012318461837BD4680BD9A
:103C60006001002080B584B000AF7860094B1B680C
:103C7000DB68786898470023FB603B7B43F00803D0
:103C80003B737B68DB68FA685A610123184610377A
:103C9000BD4680BD6001002080B586B000AF786071
:103CA00000233B613B7C43F010033B747B68DB6883
:103CB0007A68D26891693A69D2430A409A617B680E
:103CC000DB681B6AFB603B7BC3F30303DBB21A4672
:103CD00013469B001344DB0003F55C737A681344BE
:103CE00004337B61BB7BC3F34303DBB2013B052B96
:103CF00046D801A252F823F0813D0008113D00088A
:103D0000813D0008813D0008813D00085D3D0008BF
:103D1000BA8947F6F07313409BB2002B1DD07B6924
:103D2000DA68BB89C3F30A139BB2786811461A4656
:103D3000FCF7E0FA7B69DB68BA89C2F30A1292B237
:103D40001A447B69DA607B699B69BA89C2F30A12FB
:103D500092B21A447B699A6113E012E07B6803F225
:103D6000CC53786819460822FCF7C4FA7B699B6932
:103D7000BA89C2F30A1292B21A447B699A6100E0CE
:103D800000BF7B68DB687A68D26891693A690A4348
:103D90009A61012318461837BD4680BD80B586B0AC
:103DA00000AF7860396000237B610023BB603A6814
:103DB00013469B001344DB0003F58C737A681344AD
:103DC0000433FB60FB685A69FB689B69D31A7B610B
:103DD000FB689A687B699A4202D2FB689B687B61A8
:103DE0007B6903339B083B617A683B6804339B0023
:103DF00013449B689B69BB602EE0FB685A69FB68B3
:103E00009B69D31A7B61FB689A687B699A4202D2EC
:103E1000FB689B687B617B6903339B083B61FB68A4
:103E2000D9683B68DAB27B699BB27868FCF726FAFE
:103E3000FB68DA687B691A44FB68DA60FB689A6998
:103E40007B691A44FB689A617A683B6804339B007B
:103E500013449B689B69BB603B891A463B699A4245
:103E600009D9FB689A69FB685B699A4203D2FB68CF
:103E70005B69002BC1D1012318461837BD4680BDB0
:103E800080B58AB000AF786000233B6100233B62BD
:103E90000023FB610023BB6100237B610023FB60E7
:103EA0003B7C43F001033B747B681B697A681269B1
:103EB00051683A69D2430A405A6078680021FCF799
:103EC000D5FB00237B6212E07A687B6A04339B0097
:103ED00013449B68FF229A607A687B6A14339B00C4
:103EE00013445B68FF229A607B6A01337B627B68C4
:103EF0005B781A467B6A9A42E6D87B681B694FF06A
:103F0000FF329A6101233B8401237B847B681B6918
:103F10003A6ADA613B7F43F008033B773B7F43F02B
:103F200001033B773B7F43F002033B777B681B69D0
:103F3000FA695A613B7E43F001033B763B7E43F0D6
:103F400008033B763B7E43F002033B767B681B69AC
:103F5000BA691A617B681B691B687B61BB8A6FF356
:103F60000A13BB827B681B697A691A607868FDF75F
:103F7000FDF90023FB607B7B43F010037B737B68C0
:103F8000DB68FA685A61054B1B681B6978689847BB
:103F9000012318462837BD4680BD00BF60010020C0
:103FA00080B584B000AF78607868FCF7FDFD7B6871
:103FB000DB68DB68BB607868FCF7D2FD0346032B47
:103FC0000CD17B6800229A707B684FF400729A8053
:103FD0007B7A092262F385037B720AE07B68012207
:103FE0009A707B6840229A807B7A052262F385036F
:103FF0007B727B68DB68BA68DA600023FB607B7BDE
:1040000043F020037B737B68DB68FA685A61012305
:1040100018461037BD4680BD80B584B000AF7860CB
:104020000023FB60084B1B68DB6978689847BB7B03
:1040300043F01003BB737B68DB68FA685A610123A5
:1040400018461037BD4680BD6001002080B584B0A1
:1040500000AF78600023FB60084B1B681B6A786820
:104060009847BB7B43F02003BB737B68DB68FA682F
:104070005A61012318461037BD4680BD60010020FB
:1040800080B487B000AF78600B46FB707B681B691B
:104090001B697B617B681B695B6B3B61FB783A69E1
:1040A00022FA03F3DB01DBB27A6913437B61FB780D
:1040B0007A6804339B0013449B689A687B691340B9
:1040C000FB60FB6818461C37BD465DF8047B7047F3
:1040D00080B582B000AF78607B682D4A93420AD1E8
:1040E0004FF480500121FEF77BF94FF480500021FE
:1040F000FEF776F949E07B68264A93420AD14FF4ED
:1041000080400121FEF74EF94FF480400021FEF778
:1041100049F93AE07B68204A93420AD14FF40040C3
:104120000121FEF73FF94FF400400021FEF73AF974
:104130002BE07B68194A93420AD14FF400500121C9
:10414000FEF74EF94FF400500021FEF749F91CE04C
:104150007B68134A93420AD14FF480100121FEF785
:104160003FF94FF480100021FEF73AF90DE07B682B
:104170000C4A934209D14FF400100121FEF730F9A7
:104180004FF400100021FEF72BF90837BD4680BD23
:104190000030014000380040003C00400034014045
:1041A000005001400054014080B485B000AF7860F9
:1041B00039600023FB817B681B88FB81FB8903F44A
:1041C0004153FB813B681A883B685B8813439AB272
:1041D0003B689B8813439AB23B68DB8813439AB2CF
:1041E0003B681B8913439AB23B685B8913439AB2BD
:1041F0003B689B8913439AB23B68DB8913439AB2AD
:10420000FB891343FB817B68FA891A807B689B8B4F
:104210009BB223F400639AB27B689A833B681A8A44
:104220007B681A821437BD465DF8047B704700BF77
:1042300080B483B000AF78600B46FB70FB78002B36
:1042400008D07B681B889BB243F040039AB27B681E
:104250001A8007E07B681B889BB223F040039AB268
:104260007B681A800C37BD465DF8047B704700BF41
:1042700080B483B000AF78607B689B899BB218469E
:104280000C37BD465DF8047B704700BF80B483B037
:1042900000AF78600B467B807B687A889A810C3708
:1042A000BD465DF8047B704780B485B000AF786090
:1042B0000B467B800023FB737B681B899AB27B884B
:1042C00013409BB2002B02D00123FB7301E00023BB
:1042D000FB73FB7B18461437BD465DF8047B7047C3
:1042E00080B485B000AF78600023FB60344BFB6086
:1042F0007B689B79002B4FD03149314B1A687B6822
:104300001B68DB4313400B602D492D4B5A687B68BB
:104310001B68DB4313404B607B681B791A46FB68C4
:104320001344FB60FB68FA6811687A6812680A43F4
:104330001A602349224B9A687B681B68DB43134051
:104340008B601F491E4BDA687B681B68DB43134098
:10435000CB607B685B79102B0ED11949184B9A689A
:104360007B681B6813438B601549154BDA687B68C3
:104370001B681343CB601DE0114BFB607B685B79CE
:104380001A46FB681344FB60FB68FA6811687A6898
:1043900012680A431A600DE07B681B791A46FB68B5
:1043A0001344FB60FB68FA6811687A681268D243AC
:1043B0000A401A601437BD465DF8047B704700BFA1
:1043C000003C014080B483B000AF7860034A7B6852
:1043D00053610C37BD465DF8047B7047003C0140DB
:1043E00080B483B000AF7860054A7B6843F0BF6358
:1043F00043F40033D3600C37BD465DF8047B70474F
:1044000000ED00E080B485B000AF78600023FB735E
:104410000023BB730F237B737B68DB78002B38D0C2
:10442000264BDB68DB4303F4E0631B0AFB73FB7B77
:10443000C3F10403BB737A7BFB7B42FA03F37B7308
:104440007B685B781A46BB7B02FA03F3FB737B68DD
:104450009A787B7B1340DAB2FB7B1343FB73FB7BC5
:104460001B01FB73164A7B681B781344FA7B83F8A5
:104470000023134A7B681B785B09DBB218467B6814
:104480001B7803F01F03012101FA03F342F82030E7
:104490000FE00B497B681B785B09DBB218467B6831
:1044A0001B7803F01F0301229A4000F1200341F81A
:1044B00023201437BD465DF8047B704700ED00E013
:1044C00000E100E080B584B000AF78600B46FB707F
:1044D000FB7878681946FBF739FF7B68012283F87F
:1044E00012217B68002283F814210023FB6024E062
:1044F000FA6813469B001344DB0003F58C737A685B
:1045000013440433BB60BB6801225A70FB68DAB203
:10451000BB681A70FB689AB2BB68DA80BB6800227D
:10452000DA70BB6840229A60BB680022DA60BB6820
:1045300000225A61FB680133FB607B685B781A4696
:10454000FB689A42D4D80023FB6024E0FA68134643
:104550009B001344DB0003F55C737A681344043357
:10456000BB60BB6800225A70FB68DAB2BB681A7085
:10457000FB689AB2BB68DA80BB680022DA70BB685D
:1045800040229A60BB680022DA60BB6800225A6150
:10459000FB680133FB607B685B781A46FB689A42D4
:1045A000D4D87868FCF746F87868FBF78DFF786810
:1045B0000021FCF7C9F87868FCF74CF97868FCF73B
:1045C0001DF81037BD4680BD80B584B000AF78605F
:1045D000084611461A460346FB700B463B801346BD
:1045E000BB70FB785BB2002B0DDAFB7803F07F0227
:1045F00013469B001344DB0003F58C737A68134465
:104600000433FB600CE0FB7803F07F0213469B0051
:104610001344DB0003F55C737A6813440433FB60D6
:10462000FB7803F07F03DAB2FB681A70FB78DB09D2
:10463000DBB21A46FB685A703A88FB689A60FB68DE
:10464000BA78DA70FB685B78002B04D0FB681B78C3
:104650009AB2FB68DA80BB78022B02D1FB68002299
:104660001A717868F968FCF7DBFA002318461037EE
:10467000BD4680BD80B584B000AF78600B46FB704E
:10468000FB785BB2002B0DDAFB7803F07F02134658
:104690009B001344DB0003F58C737A6813440433E6
:1046A000FB600CE0FB7803F07F0213469B00134491
:1046B000DB0003F55C737A6813440433FB60FB781A
:1046C00003F07F03DAB2FB681A70FB78DB09DBB218
:1046D0001A46FB685A707868F968FCF70FFB0023EC
:1046E00018461037BD4680BD80B586B000AFF86073
:1046F0007A601A460B46FB7213463B81FB7A03F045
:104700007F0213469B001344DB0003F55C73FA68D9
:10471000134404337B617B697A68DA603A897B6988
:104720005A617B6900229A617B6900225A70FB7A88
:1047300003F07F03DAB27B691A70FB68DB78012B28
:1047400002D17A687B691A617B691B78002B04D1DE
:10475000F8687969FCF758FC03E0F8687969FCF7B8
:1047600013FB002318461837BD4680BD80B586B0C0
:1047700000AFF8607A603B600B46FB72FB7A03F097
:104780007F0213469B001344DB0003F58C73FA6829
:10479000134404337B617B6901225A70FB7A03F076
:1047A0007F03DAB27B691A707B697A68DA607A68AB
:1047B0007B691A617B6900229A617B693A685A6158
:1047C0007B691B78002B04D1F8687969FCF71CFC25
:1047D00003E0F8687969FCF7D7FA00231846183720
:1047E000BD4680BD80B584B000AF78600B46FB70DD
:1047F000FB785BB2002B0DDAFB7803F07F021346E7
:104800009B001344DB0003F58C737A681344043374
:10481000FB600AE0FA7813469B001344DB0003F5C3
:104820005C737A6813440433FB60FB6801229A705E
:10483000FB7803F07F03DAB2FB681A70FB78DB09C0
:10484000DBB21A46FB685A707868F968FCF7C6FC58
:10485000002318461037BD4680BD00BF80B584B028
:1048600000AF78600B46FB70FB785BB2002B0DDA73
:10487000FB7803F07F0213469B001344DB0003F533
:104880008C737A6813440433FB600AE0FA781346A9
:104890009B001344DB0003F55C737A681344043314
:1048A000FB60FB6800229A70FB7803F07F03DAB2AA
:1048B000FB681A70FB78DB09DBB21A46FB685A709A
:1048C0007868F968FCF7CEFC002318461037BD461F
:1048D00080BD00BF80B582B000AF78600B46FB7032
:1048E000FB785BB2002B07DAFB7803F07F03786874
:1048F0001946FBF7BBFE02E07868FBF7F5FE0023E4
:1049000018460837BD4680BD80B485B000AF7860DA
:104910000B46FB700023FB60FB7803F07F03DAB2E9
:10492000BB8962F30A13BB817B681B697A681269D1
:104930001168FA680A431A601437BD465DF8047BB3
:10494000704700BF90B585B002AF78600846114649
:104950001A4603467B800B467B7013463B707B8870
:10496000002B00D10DE0786800F020F879887A7883
:104970003C783B7E00933B7F01937868234600F0B0
:104980002BF80C37BD4690BD80B483B000AF786083
:104990007B6803F13F4303F57E039B0A9BB21846F5
:1049A0000C37BD465DF8047B704700BF80B582B010
:1049B00000AF78607868FFF7E7FF03461A460123E7
:1049C00003FA02F1034A034B1B6B0B4313630837D3
:1049D000BD4680BD0038024080B584B000AF78602D
:1049E000084611461A4603467B800B467B701346E9
:1049F0003B707868FFF7C8FF0346BB730023FB7367
:104A000067E07A88FB7B42FA03F303F00103002B93
:104A100000D15BE0BB7BBA7B314931F8122090B208
:104A2000FA7B012101FA02F292B201460A4392B2E4
:104A300091B22B4A22F813107B68DB68FA7B520094
:104A4000032101FA02F2D2431340397EFA7B52006D
:104A500001FA02F21A437B68DA607B681A68FB7B12
:104A60005B00032101FA03F3DB4313407978FA7BFF
:104A7000520001FA02F21A437B681A607B78012B1C
:104A800002D07B78022B21D17B685B68FA7B012105
:104A900001FA02F292B2D24313403978FA7B01FA5A
:104AA00002F292B21A437B685A607B689A68FB7B79
:104AB0005B00032101FA03F3DB431340397FFA7BE8
:104AC000520001FA02F21A437B689A60FB7B0133C1
:104AD000FB73FB7B0F2B94D91037BD4680BD00BF05
:104AE0000402002080B584B000AF78600023FB731F
:104AF00000F084F87B685A787B681B781343DAB23D
:104B00007B68DB781343DAB27B681B791343DAB234
:104B10007B689B781343DBB2FB7307F10F031846E6
:104B20002021012200F004F81037BD4680BD00BFEF
:104B300080B582B000AF78600B46FB7013463B80B7
:104B40003B88012B03D9FB7843F04003FB700F48EF
:104B50000821FDF7D7FEFB78184600F0E9F80AE0D7
:104B60007B681B78184600F0E3F83B88013B3B80EC
:104B70007B6801337B603B88002BF1D1034808211F
:104B8000FDF7B2FE0837BD4680BD00BF00100240F1
:104B900080B582B000AF78600B46FB7013463B8057
:104BA0003B88012B04D9FB7863F03F03FB7003E0E3
:104BB000FB7863F07F03FB700F480821FDF7A2FE2E
:104BC000FB78184600F0B4F80CE0002000F0B0F8D4
:104BD00003461A467B681A703B88013B3B807B6822
:104BE00001337B603B88002BEFD103480821FDF7A0
:104BF0007BFE0837BD4680BD0010024080B588B0FE
:104C000000AF4FF480500121FDF7AEFB01200121E0
:104C1000FDF76EFB10200121FDF76AFB102001213A
:104C2000FDF766FB10200121FDF762FB3D480521E1
:104C30000522FDF775FE3B4806210522FDF770FEB3
:104C4000384807210522FDF76BFE02233B7700233E
:104C5000BB770223FB7702237B772023BB6107F11D
:104C6000180330481946FDF7B1FD8023BB6107F1F9
:104C700018032C481946FDF7A9FD4023BB6107F135
:104C8000180328481946FDF7A1FD2748FFF720FA29
:104C90000023BB8000233B8100237B810023BB8159
:104CA0004FF40073FB8108233B8200237B820723A0
:104CB000BB824FF48273FB803B1D1B481946FFF7F4
:104CC00073FA19480121FFF7B3FA0823BB610123E6
:104CD0003B770023BB7702237B7707F11803134848
:104CE0001946FDF773FD11480821FDF7FDFD01236D
:104CF000BB6100233B770023BB7702237B77002334
:104D0000FB7707F1180309481946FDF75FFD0223F9
:104D1000BB6107F1180305481946FDF757FD203719
:104D2000BD4680BD0000024000300140001002403E
:104D300080B582B000AF0346FB711F4B4FF4805229
:104D40001A600BE01C4B1B685A1E1B490A60002BA3
:104D500004D100F035F80346DBB229E01748022100
:104D6000FFF7A2FA0346002BECD0FB799BB2134865
:104D70001946FFF78BFA104B4FF480521A600BE084
:104D80000D4B1B685A1E0C490A60002B04D100F021
:104D900017F80346DBB20BE008480121FFF784FA5D
:104DA0000346002BECD00548FFF762FA0346DBB25E
:104DB00018460837BD4680BDB801002000300140CC
:104DC00080B400AFFEE700BF80B586B000AFF860EA
:104DD000B9601346FB800023FB75FA88FB68C3F8B3
:104DE0003C21FA88FB68C3F83821FB68022283F86B
:104DF0001121FB88F8680021BA68FFF7B7FCFB7D3A
:104E000018461837BD4680BD80B586B000AFF86043
:104E1000B9601346FB800023FB75FB88F86800210E
:104E2000BA68FFF7A3FCFB7D18461837BD4680BD66
:104E300080B586B000AFF860B9601346FB800023F0
:104E4000FB75FB88F8680021BA68FFF74DFCFB7D15
:104E500018461837BD4680BD80B584B000AF786075
:104E60000023FB737B68042283F8112178680021FA
:104E700000220023FFF77AFC7868FCF777FAFB7BC7
:104E800018461037BD4680BD80B584B000AF78604D
:104E90000023FB737B68052283F8112178680021C9
:104EA00000220023FFF720FC7868FCF75FFAFB7B09
:104EB00018461037BD4680BD544D205553422048FA
:104EC00049442064657669636520696E20485320F3
:104ED0006D6F646500000000544D2055534220481A
:104EE00049442064657669636520696E20465320D5
:104EF0006D6F64650000000053544D6963726F6507
:104F00006C656374726F6E696373000030303030AB
:104F1000303030303031314200000000303030303D
:104F200030303030303131430000000048494420F7
:104F3000436F6E666967000048494420496E746596
:064F40007266616365006A
:104F4600B5170008CD170008ED170008351800083A
:104F56004D180008051800081D1800081519000846
:104F6600451900086D190008000000000000000047
:104F7600F51A000800000000000000000000000014
:104F860000000000D11A000809022200010100E019
:104F9600320904000001030000000921110100018B
:104FA60022C5000705810304000A00000501090661
:104FB600A1018501050719E029E7150025017501FD
:104FC60095088102950175088103950675081500F7
:104FD60025650507190029658100C005010902A19B
:104FE600010901A1008502050919012903150025FA
:104FF6000195037501810295017505810305010976
:1050060030093109381581257F750895038106C059
:10501600C005010905A101A100850305091901299A
:105026001015002501951075018102050109300949
:1050360031093209331581257F750895048102C02F
:10504600C005010905A101A1008504050919012969
:105056001015002501951075018102050109300919
:1050660031093209331581257F750895048102C0FF
:10507600C0000000ED1B0008B91C0008811B0008D9
:105086009D1E0008F91D00086D1E00083D1E000843
:10509600211F0008411F0008611F0008851F000826
:1050A600340100206526000889260008ED26000840
:1050B600AD26000815270008552700089127000887
:1050C6001201000200000040830410570002010292
:1050D600030100000A060002000000400100000073
:1050E60004030904007A030A00000000000000001F
:0C50F60001020304060708090010000076
:0400000508000000EF
:00000001FF
