:020000040800F2
:1000000058100020E917000841180008411800089E
:1000100041180008411800084118000800000000BD
:10002000000000000000000000000000411800086F
:10003000411800080000000041180008552200087F
:10004000411800084118000841180008411800082C
:10005000411800084118000841180008411800081C
:10006000411800084118000841180008411800080C
:1000700041180008411800084118000841180008FC
:1000800041180008411800084118000841180008EC
:1000900041180008411800084118000841180008DC
:1000A00041180008411800084118000841180008CC
:1000B00041180008411800084118000841180008BC
:1000C00041180008411800084118000841180008AC
:1000D000411800084118000841180008411800089C
:1000E00041180008411800088D290008411800082F
:1000F000411800084118000841180008411800087C
:10010000411800084118000841180008411800086B
:10011000411800084118000841180008411800085B
:10012000411800084118000841180008411800084B
:10013000411800084118000841180008411800083B
:10014000411800084118000841180008F929000862
:10015000411800084118000841180008411800081B
:10016000411800084118000841180008411800080B
:1001700041180008411800084118000841180008FB
:1001800041180008411800084118000841180008EB
:1001900041180008411800084118000841180008DB
:1001A00041180008411800084118000880B485B0C3
:1001B00000AF78600023FB607B68DB684FF0FF32A4
:1001C0005A607B68DB686FF080425A61FB7B43F0CA
:1001D0008003FB737B7B43F008037B737B68DB68E6
:1001E000FA689A611437BD465DF8047B704700BF1A
:1001F00080B586B000AF78600023FB7400237B617C
:100200000023FB60032002F08DFB7B68DB681B6929
:10021000FB607B6901337B617B69174A934201D99B
:10022000002324E0FB68DB0FDBB2002BEAD00023C5
:100230007B61FB6843F00103FB607B68DB68FA6865
:100240001A617B68DB681B69FB607B6901337B613A
:100250007B69094A934200D905E0FB6803F001037A
:10026000DBB2012BEDD0032002F05CFBFB7C1846D7
:100270001837BD4680BD00BF400D030080B489B073
:1002800000AFF860B96011461A460B46FB71134681
:10029000BB800023FB76FB68DB78002B22D1002398
:1002A0007B610023FB61BB880333002B00DA03333F
:1002B0009B107B61FB79FA6832339B0013449B6887
:1002C0003B610023FB6109E0BB681A683B691A6067
:1002D000FB690133FB61BB680433BB60FA697B696E
:1002E0009A42F1D3FB7E18462437BD465DF8047B65
:1002F000704700BF80B489B000AFF860B9601346A2
:10030000FB800023FB61FB880333002B00DA0333FF
:100310009B10BB61FB68D3F8D0307B610023FB618D
:1003200009E07B691A68BB681A60FB690133FB61ED
:10033000BB680433BB60FA69BB699A42F1D3BB68FE
:1003400018462437BD465DF8047B704780B487B0FB
:1003500000AF78600B46FB7000233B610023FB730A
:100360007B680022DA707B6801229A707B684022E9
:100370009A80FB78012B16D14FF0A0433B617B683C
:100380000122DA727B6808221A707B6804225A7094
:100390007B684FF4A072DA807B6802221A727B6855
:1003A00001229A7211E0FB78002B0ED1454B3B6184
:1003B0007B680022DA727B680C221A707B68062246
:1003C0005A707B684FF4A062DA803A697B68DA6021
:1003D0003B6903F500631A467B681A6100237B6161
:1003E0001CE07B695A013B69134403F5106319460D
:1003F0007A687B6904339B00134499607B695A01D6
:100400003B69134403F5306319467A687B691433FA
:100410009B00134459607B6901337B617B685B7887
:100420001A467B699A42DCD83B6903F580631A4619
:100430007B685A613B6903F588631A467B68C3F899
:10044000CC2000237B610FE07B695A013B69134498
:1004500003F5A06319467A687B6922339B00134435
:1004600099607B6901337B617B681B781A467B69E5
:100470009A42E9D800237B610FE07B691A033B694C
:10048000134403F5805319467A687B6932339B0025
:10049000134499607B6901337B617B681B781A4642
:1004A0007B699A42E9D83B6903F560631A467B6829
:1004B000C3F80C21FB7B18461C37BD465DF8047B56
:1004C000704700BF0000044080B586B000AF786080
:1004D0000023FB7500233B610023FB600023BB600E
:1004E0007B681B7A012B42D17B68DB689B6BFB60CE
:1004F000BB7B6FF30003BB737B685B7A002B03D07D
:10050000BB7B43F01003BB737B68DB68FA689A63BC
:1005100000233B617B68DB68DB683B613B7C6FF3FE
:1005200086133B74BB7C6FF38613BB74BB7C6FF389
:100530004103BB74BB7C6FF3C303BB747B68DB6894
:100540003A69DA607868FFF753FE7B68DB78012B45
:1005500039D13B7A052262F344033B723B7A43F084
:1005600020033B727B68DB68BA689A602BE07B688B
:10057000DB68DB683B613B7C43F040033B747B689A
:10058000DB683A69DA607868FFF732FE0023FB60C7
:10059000BB7B43F00103BB73BB7B43F00403BB7322
:1005A000BB7B43F00803BB737B685B7A002B03D0F3
:1005B000BB7B43F01003BB737B68DB68FA689A630C
:1005C000142002F0D3F97B68DB78012B10D17B6813
:1005D000DB689B68BB603B7A052262F344033B7295
:1005E0003B7A43F020033B727B68DB68BA689A6011
:1005F000FB7D18461837BD4680BD00BF80B485B06E
:1006000000AF78600023FB730023BB603B7A43F0AC
:1006100001033B727B68DB687A68D2689168BA68CC
:100620000A439A60FB7B18461437BD465DF8047B8D
:10063000704700BF80B485B000AF78600023FB73C3
:100640000023BB603B7A43F001033B727B68DB68AD
:100650007A68D2689168BA68D2430A409A60FB7B94
:1006600018461437BD465DF8047B704780B586B0E8
:1006700000AF786039600023FB7400237B610023A6
:10068000FB60FB6843F02003FB603B68DBB203F0D8
:100690001F03DBB203F01F039B01FA6822F4F86228
:1006A0001343FB607B68DB68FA681A617B68DB6870
:1006B0001B69FB607B6901337B617B69094A93425B
:1006C00000D906E0FB685B0903F00103DBB2012BF4
:1006D000ECD0032002F026F9FB7C18461837BD4603
:1006E00080BD00BF400D030080B586B000AF7860CC
:1006F0000023FB7400237B610023FB60FB6843F055
:100700001003FB607B68DB68FA681A617B68DB6852
:100710001B69FB607B6901337B617B69094A9342FA
:1007200000D906E0FB681B0903F00103DBB2012BD3
:10073000ECD0032002F0F6F8FB7C18461837BD46D3
:1007400080BD00BF400D030080B584B000AF78606D
:100750000B46FB700023FB737B68DB68DB68BB60C8
:10076000FB7A6FF34513FB72FB7A6FF38613FB7210
:10077000FB78012B04D1FB7A43F02003FB7206E0E7
:10078000FB78002B03D1FB7A43F04003FB727B68BC
:10079000DB68BA68DA60322002F0E8F8FB7B1846C2
:1007A0001037BD4680BD00BF80B483B000AF786015
:1007B0007B68DB685B6903F0010318460C37BD46B4
:1007C0005DF8047B704700BF80B582B000AF7860F1
:1007D0007868FFF7E9FF0346012B14BF01230023CC
:1007E000DBB218460837BD4680BD00BF80B485B077
:1007F00000AF78600023FB607B68DB685B69FB60AF
:100800007B68DB689B69FA681340FB60FB681846ED
:100810001437BD465DF8047B704700BF80B485B0D7
:1008200000AF78600B46FB707B681B691B68FB6040
:10083000FB7803F00303DAB23B7B62F301033B7303
:100840007B681B69FA681A601437BD465DF8047B43
:10085000704700BF80B58CB000AF7860002387F888
:100860002B3000237B6200233B620023FB610023CB
:10087000BB6100237B617B68D3F80C3100221A60D6
:100880007B681B691B683B6297F821306FF3C403D8
:1008900087F821307B681B693A6A1A607B68DB7ACB
:1008A000012B33D178680321FFF7B8FF7B68DB6841
:1008B00080225A624023FB838023BB837B68DB68F2
:1008C000FA699A62BA8BFB8B13449BB23B838023F9
:1008D0007B837B68DB68BA69C3F804213A8B7B8B26
:1008E00013449BB23B8300237B837B68DB68BA693C
:1008F000C3F808213A8B7B8B13449BB23B830023C4
:100900007B837B68DB68BA69C3F80C2178681021A7
:10091000FFF7ACFE7868FFF7E7FE7B681B690022F3
:100920001A617B681B6900225A617B681B694FF062
:10093000FF329A617B681B690022DA610023FB6247
:100940003AE07A68FB6A04339B0013449B681B6897
:100950007B6297F8273023F07F03DBB2002B0ED0A9
:1009600000237B6297F8273043F0400387F8273055
:1009700097F8273043F0080387F8273001E0002379
:100980007B627A68FB6A04339B0013449B687A6A33
:100990001A607A68FB6A04339B0013449B68002248
:1009A0001A617A68FB6A04339B0013449B68FF2238
:1009B0009A60FB6A0133FB627B685B781A46FB6ACC
:1009C0009A42BED80023FB6235E07A68FB6A143392
:1009D0009B0013445B681B68FB60FB7B23F07F0379
:1009E000DBB2002B0AD00023FB60FB7B43F040030B
:1009F000FB73FB7B43F00803FB7301E00023FB6008
:100A00007A68FB6A14339B0013445B68FA681A60C7
:100A10007A68FB6A14339B0013445B6800221A61F6
:100A20007A68FB6A14339B0013445B68FF229A6068
:100A3000FB6A0133FB627B685B781A46FB6A9A4269
:100A4000C3D800237B617B7D43F001037B757B680A
:100A50001B697A68126911697A69D24311407A690F
:100A60000A431A617B68DB78012B1BD100233B61B1
:100A70003B7C43F001033B743B7C43F002033B743B
:100A80003B8A402262F38A033B82BB7C43F0010332
:100A9000BB747B8A402262F349037B827B681B69BB
:100AA0003A691A63786800F007F897F82B3018460F
:100AB0003037BD4680BD00BF80B584B000AF7860E0
:100AC0000023FB730023BB607B68DB6800229A6114
:100AD0007B68DB686FF080425A617868FFF766FBDD
:100AE0007B68DB78002B03D13B7A43F010033B7229
:100AF0007B7A43F008037B727B7A43F010037B72AE
:100B00007B7A43F020037B72BB7A43F00403BB7211
:100B1000BB7A43F00803BB723B7A43F008033B7295
:100B2000BB7A43F01003BB72BB7A43F02003BB7265
:100B3000FB7A43F04003FB723B7A43F004033B72C1
:100B40007B68DB687A68D2689169BA68D2431140E1
:100B5000BA680A439A61FB7B18461037BD4680BDD0
:100B600080B485B000AF78600023FB737B681B699D
:100B70009B68BB603B7AC3F34103DBB2022B09D015
:100B8000032B04D0012B02D00323FB7305E00223C7
:100B9000FB7302E00123FB7300BFFB7B1846143795
:100BA000BD465DF8047B704780B487B000AF7860C5
:100BB0000023FB750023BB607B681B699B683B615E
:100BC0007B689B691B68FB603B7CC3F34103DBB222
:100BD000022B04D0BB896FF30A03BB8105E0BB89FC
:100BE000032262F30A03BB8100BF7B689B69FA683A
:100BF0001A607B7A43F001037B727B681B697A6819
:100C000012695168BA68D2431140BA680A435A60FF
:100C1000FB7D18461C37BD465DF8047B704700BF5E
:100C200080B487B000AF786039600023FB74002384
:100C3000FB600023BB603B685B78012B0FD13B68F6
:100C40001B787A6804339B0013449B687B613B6884
:100C50001B781A46012393409BB23B810EE03B6810
:100C60001B787A6814339B0013445B687B613B6894
:100C70001B781A46012393409BB27B817B691B68DA
:100C8000FB607B7B23F07F03DBB2002B27D13B682B
:100C90009B689BB2C3F30A039AB2BB8962F30A034F
:100CA000BB813B68DB7803F00303DAB2BB7B62F302
:100CB0008303BB733B68DB88DBB203F00F03DAB25C
:100CC000FB8962F38913FB81FB7B43F01003FB7309
:100CD0007B7B43F080037B73FA687B691A607B68D7
:100CE0001B697A681269D169BA680A43DA61FB7CC8
:100CF00018461C37BD465DF8047B704780B487B04A
:100D000000AF786039600023FB740023FB60002390
:100D1000BB603B685B78012B0FD13B681B787A681E
:100D200004339B0013449B687B613B681B781A4625
:100D3000012393409BB23B810EE03B681B787A68AD
:100D400014339B0013445B687B613B681B781A4635
:100D5000012393409BB27B817B7B6FF3C7137B7333
:100D6000FA687B691A607B681B697A681269D169C5
:100D7000BA68D2430A40DA61FB7C18461C37BD468C
:100D80005DF8047B704700BF80B588B000AF786025
:100D900039600023FB770023BB6100237B610023C4
:100DA0003B613B685B78012B40F0AB803B681B7874
:100DB0007A6804339B0013449B681B687B613B6823
:100DC0001B787A6804339B0013449B681B693B6162
:100DD0003B685B69002B09D13B696FF312033B61F0
:100DE0007B8A012262F3CC037B8222E03B685B6951
:100DF000C3F312023B6962F312033B613B685A6919
:100E00003B689B6813445A1E3B689B68B2FBF3F334
:100E10009BB2C3F309039AB27B8A62F3CC037B8251
:100E20003B68DB78012B04D1FB7C012262F3461383
:100E3000FB743B681B787A6804339B0013449B68FF
:100E40003A691A617B68DB78012B0AD13B681B7811
:100E50007A6804339B0013449B683A6812695A61AC
:100E600015E03B68DB78012B11D03B685B69002BF8
:100E70000DD03B681B781A4601239340BB617B6809
:100E80001B697A681269516BBA690A435A633B68F5
:100E9000DB78012B14D17B681B699B68FB60FB68C6
:100EA000C3F30D239BB203F00103002B04D1FB7DA0
:100EB00043F02003FB7503E0FB7D43F01003FB755B
:100EC000FB7D43F00403FB75FB7D43F08003FB7562
:100ED0003B681B787A6804339B0013449B687A69EB
:100EE0001A603B68DB78012B40F089803B68D96849
:100EF0003B681A783B685B699BB27868FFF7BEF97C
:100F00007DE03B681B787A6814339B0013445B6870
:100F10001B687B613B681B787A6814339B00134421
:100F20005B681B693B613B685B69002B0DD13B68CB
:100F30009B68C3F312023B6962F312033B617B8A35
:100F4000012262F3CC037B8220E03B685A693B6854
:100F50009B6813445A1E3B689B68B2FBF3F39BB239
:100F6000C3F309039AB27B8A62F3CC037B827B8A48
:100F7000C3F3C9039BB21A463B689B6803FB02F3A9
:100F8000C3F312023B6962F312033B613B681B78B7
:100F90007A6814339B0013445B683A691A617B6872
:100FA000DB78012B09D13B681B787A6814339B00EE
:100FB00013445B683A6812695A613B68DB78012B1D
:100FC0000CD13B685B79002B04D0FB7D43F0200300
:100FD000FB7503E0FB7D43F01003FB75FB7D43F0E5
:100FE0000403FB75FB7D43F08003FB753B681B78B6
:100FF0007A6814339B0013445B687A691A60FB7F3C
:1010000018462037BD4680BD80B489B000AF7860F7
:1010100039600023FB770023BB6100233B61002381
:10102000BB603B685B78012B70D17B689B697B61FF
:101030007B691B683B617B691B69BB603B685B69C3
:10104000002B09D13B7A6FF306033B72BB7A012276
:1010500062F3C403BB7223E03B685A693B689B6838
:101060009A420ED93B689A683B685A613B689B6814
:10107000DBB203F07F03DAB23B7A62F306033B7222
:1010800009E03B685B69DBB203F07F03DAB23B7ACD
:1010900062F306033B72BB7A012262F3C403BB72A4
:1010A000BA687B691A617B68DB78012B09D13B68E0
:1010B0001B787A6804339B0013449B683A68126972
:1010C0005A61FB7C43F00403FB74FB7C43F0800318
:1010D000FB743A697B691A607B68DB78002B76D1F8
:1010E0003B685B69002B72D03B681B781A46012372
:1010F00093401A46BB691343BB617B681B697A68DE
:101100001269516BBA690A435A6360E03B681B7805
:101110007A6814339B0013445B681B683B613B682F
:101120001B787A6814339B0013445B681B69BB60AF
:101130003B685B69002B0FD13B689B68DBB203F017
:101140007F03DAB23B7A62F306033B72BB7A012279
:1011500062F3C403BB7212E03B689A683B685A6151
:101160003B689B68DBB203F07F03DAB23B7A62F341
:1011700006033B72BB7A012262F3C403BB723B6875
:101180001B787A6814339B0013445B68BA681A6151
:101190007B68DB78012B09D13B681B787A681433B4
:1011A0009B0013445B683A6812695A61FB7C43F008
:1011B0000403FB74FB7C43F08003FB743B681B78E7
:1011C0007A6814339B0013445B683A691A60FB7FAA
:1011D00018462437BD465DF8047B704780B487B05D
:1011E00000AF786039600023FB750023FB603B682B
:1011F0005B78012B1CD13B681B787A6804339B0019
:1012000013449B683B613B691B68FB60FB7B23F0DD
:101210007F03DBB2002B03D0FB7B43F04003FB7367
:10122000BB7B43F02003BB73FA683B691A6011E093
:101230003B681B787A6814339B0013445B683B61FE
:101240003B691B68FB60BB7B43F02003BB73FA6800
:101250003B691A60FB7D18461C37BD465DF8047B70
:10126000704700BF80B487B000AF7860396000235A
:10127000FB740023FB603B685B78012B08D13B6863
:101280001B787A6804339B0013449B687B6107E0FA
:101290003B681B787A6814339B0013445B687B615E
:1012A0007B691B68FB60BB7B6FF34513BB733B68BB
:1012B000DB78032B03D03B68DB78022B03D1FB7B6D
:1012C00043F01003FB73FA687B691A60FB7C1846D5
:1012D0001C37BD465DF8047B704700BF80B485B005
:1012E00000AF78607B681B699B69FB607B681B694A
:1012F000DB69FA681340FB60FB681B0C1846143767
:10130000BD465DF8047B704780B485B000AF78605F
:101310000B46FB70FB787A6814339B0013445B68C0
:101320009B68FB607B681B695B69FA681340FB6024
:10133000FB6818461437BD465DF8047B704700BF54
:1013400080B485B000AF78607B681B699B69FB60E7
:101350007B681B69DB69FA681340FB60FB689BB222
:1013600018461437BD465DF8047B704780B487B0DB
:1013700000AF786000233B61FB7C43F0C003FB744B
:10138000BB7C012262F3C403BB743B7C182262F372
:1013900006033B747B685B6D3A691A617B68DB7896
:1013A000012B16D10023FB607B685B6D7A6802F22B
:1013B000CC525A617B685B6D1B68FB60FB7B43F022
:1013C0008003FB734FF08023FB607B685B6DFA68E2
:1013D0001A601C37BD465DF8047B704780B485B049
:1013E00000AF78607B689B7A002B1BD07B681B6901
:1013F0009B68FB603B7B03F00103DBB2002B11D049
:101400007B6803F586731B68BB603B7A6FF341030F
:101410003B723B7A6FF300033B727B68D3F80C316D
:10142000BA681A601437BD465DF8047B704700BF88
:1014300080B582B002AF084B009308480121084AEA
:10144000084B00F001FB084B02221A70064B1B7878
:101450001846BD4680BD00BF0000002018020020D5
:10146000640100201C000020B801002080B400AFFF
:10147000034B1B781846BD465DF8047B704700BFE0
:10148000B801002080B483B000AF78607B68002290
:101490001A707B6800225A707B6800229A707B6801
:1014A0000022DA707B6800221A717B6800225A7170
:1014B000034B1B7818460C37BD465DF8047B70471C
:1014C000B801002080B483B000AF78607B68002250
:1014D0001A707B6800225A707B6800229A707B68C1
:1014E0000022DA707B6800221A717B6800225A7130
:1014F0007B6800229A717B680022DA717B68002287
:101500001A727B6800225A727B6800229A727B688A
:101510000022DA727B6800221A737B6800225A73F9
:101520007B6800229A737B680022DA737B68002252
:101530001A747B6800225A747B6800229A747B6854
:101540000022DA74034B1B7818460C37BD465DF851
:10155000047B7047B801002080B483B000AF78608E
:101560007B6800221A707B6800225A707B68002218
:101570009A707B680022DA707B6800221A717B689F
:1015800000225A717B6800229A717B680022DA710E
:101590007B6800221A727B6800225A727B680022E4
:1015A0009A727B680022DA727B6800221A737B6869
:1015B00000225A73034B1B7818460C37BD465DF862
:1015C000047B7047B801002080B586B000AF78601A
:1015D00000233B7300237B730023BB730023FB7347
:1015E00000233B7400237B740023BB740023FB7433
:1015F00000233B753A4B1B78012B01D002236BE093
:1016000001233B7300237B737A7B7B681B78134336
:10161000DBB27B737B7BDAB27B689B785B00DBB2EF
:101620001343DBB2DBB27B737B7BDAB27B685B7824
:101630009B00DBB21343DBB2DBB27B737B7BDAB2A2
:101640007B68DB78DB00DBB21343DBB2DBB27B739E
:101650007B7BDAB27B681B791B01DBB21343DBB205
:10166000DBB27B737B7BDAB27B689B795B01DBB29D
:101670001343DBB2DBB27B737B7BDAB27B685B79D3
:101680009B01DBB21343DBB2DBB27B737B7BDAB251
:101690007B68DB79DB01DBB21343DBB2DBB27B734C
:1016A0000023BB737B681B7AFB737B685B7A3B749C
:1016B0007B689B7A7B747B68DB7ABB747B681B7B63
:1016C000FB747B685B7B3B7507F10C03054819468F
:1016D000092200F07FF9012318461837BD4680BD66
:1016E000B80100201802002080B400AF034B022292
:1016F0001A70BD465DF8047B704700BFB80100203A
:1017000080B483B000AF0346FB71044B02221A7011
:101710000C37BD465DF8047B704700BFB801002060
:1017200080B400AF034B01221A70BD465DF8047B04
:10173000704700BFB801002080B400AF034B022205
:101740001A70BD465DF8047B704700BFB8010020E9
:1017500080B400AF034B02221A70BD465DF8047BD3
:10176000704700BFB801002080B400AF034B0222D5
:101770001A70BD465DF8047B704700BFB8010020B9
:1017800080B400AF034B02221A70BD465DF8047BA3
:10179000704700BFB801002080B582B002AF0023BF
:1017A00000930323019306484FF4C0410122002314
:1017B00002F03AFE024B4FF4C0425A83BD4680BD50
:1017C0000018024080B582B002AF022300930023CC
:1017D0000193044801210022002302F025FEBD46AA
:1017E00080BD00BF0000024080B582B000AF0F4B4B
:1017F0007B600F4B3B6007E03B681A1D3A607A68DC
:10180000111D796012681A603B680A4A9342F3D34B
:1018100009480A494FF000028842B8BF40F8042B3B
:10182000FADB00F063FB0837BD4680BD4647000881
:1018300000000020B8010020B8010020540800205A
:1018400080B400AFFEE700BF80B582B000AF786023
:101850000B46FB70786881210422032302F026FCEA
:10186000786801210422032302F020FC002318469B
:101870000837BD4680BD00BF80B582B000AF78603C
:101880000B46FB707868812102F066FC78680121C4
:1018900002F062FC002318460837BD4680BD00BF39
:1018A00080B584B000AF786039600023FB810023ED
:1018B000BB603B681B7803F06003002B41D0202BFA
:1018C00078D13B685B78023B092B33D801A252F8F0
:1018D00023F000BF291900080B190008351900086A
:1018E00035190008351900083519000835190008A0
:1018F0003519000817190008FD1800083B685B88B7
:10190000DBB21A462E4B1A601AE078682C49012285
:1019100002F05AFE14E03B685B881B0A9BB2DBB204
:101920001A46284B1A600BE078682649012202F01B
:101930004BFE05E07868396801F08CFC02233AE040
:1019400038E03B685B780A2B27D00B2B2BD0062B7B
:1019500030D13B685B881B0A9BB2222B08D13B68C5
:10196000DB88C52B28BFC523FB81174BBB600DE06F
:101970003B685B881B0A9BB2212B07D1134BBB60D2
:101980003B68DB88092B28BF0923FB81FB8978682A
:10199000B9681A4602F018FE0CE078680C4901227A
:1019A00002F012FE06E03B685B88DBB21A46084B89
:1019B0001A6000BF002318461037BD4680BD00BF27
:1019C000C0010020C40100206C0000205A0000204B
:1019D000BC01002080B584B000AFF860B960134648
:1019E000FB80FB6893F81231032B05D1FB88F86864
:1019F0008121BA6802F02CFC002318461037BD463E
:101A000080BD00BF80B483B000AF03463960FB7176
:101A10003B6822221A80034B18460C37BD465DF8FE
:101A2000047B70474800002080B582B000AF78602A
:101A30000B46FB707868812102F0BEFC002318463B
:101A40000837BD4680BD00BF80B584B000AFF860E8
:101A50007A603B600B46FB72F86800F0C9FEF868DC
:101A600000F01CF8FB683A68C3F8E425FB68BA6923
:101A7000C3F8E825FB687A68C3F8EC25FB7AF868B8
:101A8000194602F091FAFB68D3F8E8351B689847CD
:101A9000F86800F02FFF1037BD4680BD80B483B0DA
:101AA00000AF7860002318460C37BD465DF8047B14
:101AB000704700BF80B584B000AF786007F10803BD
:101AC0007868194601F07EFB3B7A03F01F03012B77
:101AD0000AD0022B0FD0002B14D107F1080378682D
:101AE000194600F091FF16E007F1080378681946DF
:101AF00000F0DAFF0FE007F108037868194601F0FB
:101B000007F808E03B7A23F07F03DBB278681946D8
:101B100002F0DAFB00BF002318461037BD4680BD37
:101B200080B584B000AF78600B46FB70FB78002B6B
:101B300044D17B6803F55D73FB607B6893F81131DA
:101B4000032B4ED1FB68DA69FB689B689A4220D967
:101B5000FB68DA69FB689B68D21AFB68DA617B680C
:101B6000DB78012B06D1FB68DA68FB689B681A44B6
:101B7000FB68DA60FB68D968FB689A68FB68DB6918
:101B8000934228BF13469BB278681A4602F050FD74
:101B900027E07B68D3F8E4351B69002B0AD07B680B
:101BA00093F81231032B05D17B68D3F8E4351B6918
:101BB00078689847786802F04FFD12E07B68D3F8A8
:101BC000E4359B69002B0CD07B6893F81231032B12
:101BD00007D17B68D3F8E4359B69FA7878681146B9
:101BE0009847002318461037BD4680BD80B584B0A5
:101BF00000AF78600B46FB70FB78002B6CD17B68E4
:101C000003F58E73FB607B6893F81131022B56D17C
:101C1000FB68DA69FB689B689A421CD9FB68DA6941
:101C2000FB689B68D21AFB68DA617B68DB78012B62
:101C300006D1FB68DA68FB689B681A44FB68DA60C7
:101C4000FB68DA68FB68DB699BB2786811461A4664
:101C500002F0DAFC33E0FB681B6AFA689268B3FBB7
:101C6000F2F102FB01F29B1A002B14D1FB681A6AF5
:101C7000FB689B689A420ED3FB681A6AFB685B6A32
:101C80009A4208D278680021002202F0BDFCFB686D
:101C900000225A6213E07B68D3F8E435DB68002B3E
:101CA0000AD07B6893F81231032B05D17B68D3F8F7
:101CB000E435DB6878689847786802F0E5FC7B6873
:101CC00093F81631012B1AD1786800F01DF87B6863
:101CD000002283F8162112E07B68D3F8E4355B69B3
:101CE000002B0CD07B6893F81231032B07D17B6853
:101CF000D3F8E4355B69FA78786811469847002391
:101D000018461037BD4680BD80B483B000AF786000
:101D10007B681B69044A12685A60002318460C3716
:101D2000BD465DF8047B70470C08002080B582B08A
:101D300000AF7860786800214022002302F0B6F9F5
:101D4000786880214022002302F0B0F97B680122EC
:101D500083F812217B68D3F8E8355B687A6892785B
:101D600010469847002318460837BD4680BD00BF7F
:101D700080B582B000AF78607B68D3F8E8351B6926
:101D800098477B6893F813217B6883F812217B685E
:101D9000032283F81221002318460837BD4680BD70
:101DA00080B582B000AF78607B6893F812217B68C1
:101DB00083F813217B68042283F812217B68D3F80F
:101DC000E835DB689847002318460837BD4680BDD4
:101DD00080B582B000AF78607B68D3F8E435DB690A
:101DE000002B05D07B68D3F8E435DB697868984729
:101DF000002318460837BD4680BD00BF80B582B0BD
:101E000000AF78600B46FB707B68D3F8E4351B6845
:101E1000FA787868114698477B68D3F8E8359B686C
:101E20009847002318460837BD4680BD80B582B06C
:101E300000AF78600B46FB707B68D3F8E4355B68D5
:101E4000FA78786811469847002318460837BD4647
:101E500080BD00BF80B582B000AF78607B68D3F8EA
:101E6000E4351B6A78689847002318460837BD4652
:101E700080BD00BF80B582B000AF78607B68D3F8CA
:101E8000E4355B6A78689847002318460837BD46F2
:101E900080BD00BF80B582B000AF78607B68D3F8AA
:101EA000E8355B6998477B68012283F81521002398
:101EB00018460837BD4680BD80B582B000AF786057
:101EC0007B68D3F8E8359B6998477B68D3F8E4359D
:101ED0005B687868002198477B68002283F81521A9
:101EE000002318460837BD4680BD00BF80B590B0BE
:101EF00000AF002387F83F3000F0D4FBFFF74CFC25
:101F0000FFF760FC00F01EFAFFF792FA3B46184616
:101F1000FFF7B8FA07F130031846FFF71DFB07F18A
:101F20001C031846FFF7CEFA07F108031846FFF71F
:101F3000C9FAFFF79BFA0346012B35D11D4B4FF42D
:101F400000521A831C4B1B6903F00103002B12D0B3
:101F500097F83F30002B0ED1012387F83F30012343
:101F600087F83330152387F8383007F130031846E7
:101F7000FFF72AFB1CE0104B1B6903F00103002B49
:101F800016D197F83F30012B12D1002387F83F304C
:101F9000002387F83330002387F8383007F1300307
:101FA0001846FFF711FB03E0024B4FF400525A832F
:101FB000BFE700BF001802400000024080B483B0B9
:101FC00000AF0346FB71054B00221A70034AFB79F0
:101FD00013700C37BD465DF8047B70470238024031
:101FE00080B483B000AF0346FB71044AFB791360F1
:101FF0000C37BD465DF8047B704700BF6000474268
:1020000080B485B000AF78600023FB60094B9B680B
:10201000FB60FB6823F00303FB60FA687B681343F3
:10202000FB60044AFB6893601437BD465DF8047B8F
:10203000704700BF0038024080B400AF054B9B687A
:10204000DBB203F00C03DBB21846BD465DF8047B3F
:10205000704700BF0038024080B483B000AF7860A2
:102060000B46FB70FB78002B06D00949084B1A6B16
:102070007B6813430B6306E00549054B1A6B7B68CD
:10208000DB4313400B630C37BD465DF8047B7047A0
:102090000038024080B483B000AF78600B46FB701C
:1020A000FB78002B06D00949084B5A6B7B68134319
:1020B0004B6306E00549054B5A6B7B68DB431340D5
:1020C0004B630C37BD465DF8047B70470038024017
:1020D00080B483B000AF78600B46FB70FB78002BB8
:1020E00006D00949084B5A6C7B6813434B6406E0E1
:1020F0000549054B5A6C7B68DB4313404B640C3736
:10210000BD465DF8047B70470038024080B483B060
:1021100000AF78600B46FB70FB78002B06D00949B6
:10212000084B1A6A7B6813430B6206E00549054BAE
:102130001A6A7B68DB4313400B620C37BD465DF8BF
:10214000047B70470038024080B487B000AF03467C
:10215000FB710023FB6000237B610023FB74FB7990
:102160005B09DBB2FB60FB68012B03D1124B1B68E0
:102170007B6109E0FB68022B03D10F4B1B6F7B6176
:1021800002E00D4B5B6F7B61FB7903F01F03FB608B
:10219000FB687A6922FA03F303F00103002B02D0F3
:1021A0000123FB7401E00023FB74FB7C18461C3701
:1021B000BD465DF8047B70470038024080B483B0B0
:1021C00000AF03463960FB7197F90730002B0BDA3B
:1021D0000D49FB7903F00F03043B3A68D2B21201B8
:1021E000D2B20B441A7609E0084997F907303A68E9
:1021F000D2B21201D2B20B4483F800230C37BD4691
:102200005DF8047B704700BF00ED00E000E100E0F6
:1022100080B582B000AF78607B68013BB3F1807F0E
:1022200001D301230FE00A4A7B68013B53604FF062
:10223000FF300F21FFF7C2FF054B00229A60044BCD
:1022400007221A60002318460837BD4680BD00BF2C
:1022500010E000E080B582B000AF374B1B6801335F
:10226000354A1360354B1B68002B04D0334B1B6879
:10227000013B324A1360AFF300800023FB7152E050
:10228000FB792F4A9B0013445B68002B48D0FB79F5
:102290002B4A9B0013445B681B7B002B40D0FB79CF
:1022A000274A9B0013445B689B68002B38D0FB795E
:1022B000234A9B0013445B689A68013A9A60FB7951
:1022C0001F4A9B0013445B689B68002B28D1FB7955
:1022D0001B4A9B0013445B681A69FB7918499B00F1
:1022E0000B445B685B6918469047FB79144A9B0076
:1022F00013445A68FB7912499B000B445B681B68C6
:102300009360FB790E4A9B0013445B685B68002B6B
:1023100006D1FB790A4A9B0013445B6800221A73BA
:10232000FB790133FB71064B1B78FA799A42A7D3EC
:102330000837BD4680BD00BFCC010020D001002081
:10234000D801002080B500AF0C4B1B680C4AA2FBE3
:1023500003239B091846FFF75BFF0346002B00D0C1
:10236000FEE7064B1B689B09064AA2FB03239B0A58
:10237000054A1360054B01221A7080BDA40100209C
:10238000D34D62101791650210080020D40100207F
:1023900080B483B000AF03463960FB713B68122202
:1023A0001A80034B18460C37BD465DF8047B704716
:1023B0008001002080B483B000AF03463960FB7118
:1023C0003B6804221A80034B18460C37BD465DF863
:1023D000047B7047A001002080B582B000AF0346A7
:1023E0003960FB71FB79002B05D1084808493A6830
:1023F00000F044FF04E0074805493A6800F03EFF5A
:10240000034B18460837BD4680BD00BFB8460008DC
:1024100014080020D846000880B582B000AF0346FB
:102420003960FB71044805493A6800F027FF034B07
:1024300018460837BD4680BDF8460008140800203D
:1024400080B582B000AF03463960FB71FB79002B89
:1024500005D1084808493A6800F010FF04E0074831
:1024600005493A6800F00AFF034B18460837BD4695
:1024700080BD00BF0C470008140800201C4700085E
:1024800080B582B000AF03463960FB71FB79002B49
:1024900005D1084808493A6800F0F0FE04E0054814
:1024A00005493A6800F0EAFE034B18460837BD4676
:1024B00080BD00BF2C4700081408002080B582B002
:1024C00000AF03463960FB71FB79002B05D108484A
:1024D00008493A6800F0D2FE04E0054805493A6828
:1024E00000F0CCFE034B18460837BD4680BD00BF48
:1024F000384700081408002080B487B000AF786027
:10250000396000237B6100233B610023FB600023D3
:102510007B6176E07B69012202FA03F33B613B6851
:102520001A683B691340FB60FA683B699A4265D1BF
:102530007B681A687B695B00194603238B40DB4389
:102540001A407B681A607B681A683B681B791946D9
:102550007B695B0001FA03F31A437B681A603B68EE
:102560001B79012B03D03B681B79022B2ED17B6892
:102570009A687B695B00194603238B40DB431A4052
:102580007B689A607B689A683B685B7919467B69CF
:102590005B0001FA03F31A437B689A607B685A6810
:1025A0007B699BB2194601238B40DB431A407B6851
:1025B0005A607B685B683A68927911467A6992B290
:1025C00001FA02F292B21A437B685A607B68DA68B9
:1025D0007B699BB25B00032101FA03F3DB431A40E2
:1025E0007B68DA607B68DA683B68DB7919467B696F
:1025F0005B0001FA03F31A437B68DA607B690133FD
:102600007B617B690F2B85D91C37BD465DF8047B48
:10261000704700BF80B485B000AF78600B467B8008
:1026200013467B700023FB600023BB607B787A88B5
:1026300002F0070292009340FB607B88DB089BB2AC
:1026400018467B88DB089BB21A467B68083253F831
:1026500022207B8803F007039B0019460F238B4041
:10266000DB4302EA03017B6800F1080243F8221011
:102670007B88DB089BB21A467B68083253F822201D
:10268000FB681343BB607B88DB089BB21A467B6800
:102690000832B96843F822101437BD465DF8047B50
:1026A000704700BF80B500AF114A114B1B6843F063
:1026B000010313600E4B00229A600D4A0C4B1B68FD
:1026C00023F0847323F480331360094B094A5A6062
:1026D000074A074B1B6823F480231360044B002236
:1026E000DA6000F00BF8044B4FF000629A6080BD96
:1026F000003802401030002400ED00E080B483B0C8
:1027000000AF00237B6000233B60354A344B1B68DD
:1027100043F480331360324B1B6803F400333B6097
:102720007B6801337B603B68002B03D17B68B3F58A
:10273000A04FF0D12A4B1B6803F40033002B02D0CA
:1027400001233B6001E000233B603B68012B42D149
:10275000234A234B1B6C43F080531364214A214BC3
:102760001B6843F4404313601D4A1D4B9B689360F4
:102770001B4A1B4B9B6843F400439360184A184B59
:102780009B6843F4A0539360154B174A5A60144A50
:10279000134B1B6843F08073136000BF104B1B6822
:1027A00003F00073002BF9D0104B40F205621A6061
:1027B0000B4A0B4B9B6823F003039360084A084BBA
:1027C0009B6843F00203936000BF054B9B6803F0D6
:1027D0000C03082BF9D10C37BD465DF8047B70471C
:1027E000003802400070004008544007003C02409E
:1027F00080B588B000AF786001200121FFF72CFC84
:102800004FF4C053BB6103237B7702233B77002344
:10281000BB770023FB7707F1180335481946FFF70C
:102820006BFE33480B210A22FFF7F4FE30480C21DF
:102830000A22FFF7EFFE4FF40073BB6103237B779F
:1028400000233B770123BB770023FB7707F11803B5
:1028500027481946FFF750FE4FF48063BB61012300
:10286000BB770123FB7703237B7707F1180320480D
:102870001946FFF741FE1E480A210A22FFF7CAFE49
:102880004FF480400121FFF723FC80200121FFF756
:1028900001FC4FF080500121FFF738FC4FF48020FD
:1028A00001F002FB4FF480233B6100233B750823BA
:1028B0007B750123BB7507F11003184601F082FAFE
:1028C0004FF4802001F0F0FA2A233B7301237B733D
:1028D0000423BB730123FB7307F10C03184601F0BB
:1028E00003FB4FF4802001F0DFFA2037BD4680BDA6
:1028F0000000024080B584B000AF78604FF4C06043
:1029000001F0E0FA43233B7301237B730323BB7382
:102910000123FB7307F10C03184601F0E5FA1037A9
:10292000BD4680BD80B485B000AF78600023FB60F9
:102930007A6813461B019B1ADB001A460A4BA3FB5D
:102940000213D21A520813449B08BB60FB68013380
:10295000FB60FA68BB689A4200D900E0F6E71437DA
:10296000BD465DF8047B70472549922480B582B04E
:1029700000AF78607B684FF47A7202FB03F318466D
:10298000FFF7D0FF0837BD4680BD00BF80B500AF60
:10299000174B9B7A002B25D0164A164B1B6923F048
:1029A000060313610120FFF709FB00BF3120FFF789
:1029B000CBFB0346002BF9D00120FFF711FB00BF32
:1029C0003920FFF7C1FB0346002BF9D00220FFF7A7
:1029D00017FB00BFFFF730FB0346082BFAD1044872
:1029E000FEF7FCFC4FF4802001F05EFA80BD00BFD2
:1029F0001802002000ED00E080B500AF014800F0B3
:102A000097FC80BD1802002080B584B000AF7860CC
:102A100039600023FB733B685B78092B39D801A22E
:102A200052F823F0752A0008892A0008932A000822
:102A30007F2A0008932A0008572A00084D2A000818
:102A4000932A00086B2A0008612A00087868396810
:102A500000F036F922E07868396800F00DFA1DE0E0
:102A60007868396800F046FA18E07868396800F04C
:102A7000BBFA13E07868396800F0E6FA0EE078688F
:102A8000396800F00BFB09E07868396800F072FBE8
:102A900004E07868396800F0DDFB00BFFB7B184676
:102AA0001037BD4680BD00BF80B584B000AF7860F0
:102AB00039600023FB737B6893F81231032B1CD120
:102AC0003B689B88DBB2012B11D87B68D3F8E435D7
:102AD0009B687868396898473B68DB88002B0BD186
:102AE000FB7B002B08D1786801F0B6FD0AE078681E
:102AF000396800F0AFFB05E004E07868396800F061
:102B0000A9FB00BFFB7B18461037BD4680BD00BF48
:102B100080B584B000AF786039600023FB733B68F8
:102B20009B88BB733B685B78012B39D0032B02D0A9
:102B3000002B6BD0BCE07B6893F81231022B02D0E3
:102B4000032B0DD026E0BB7B002B08D0BB7B802B5A
:102B500005D0BB7B7868194601F0B6FB1FE01EE08C
:102B60003B685B88002B0AD1BB7B002B07D0BB7B6B
:102B7000802B04D0BB7B7868194601F0A5FB7B68ED
:102B8000D3F8E4359B68786839689847786801F02D
:102B900063FD04E07868396800F05CFB00BF87E003
:102BA0007B6893F81231022B02D0032B0DD027E063
:102BB000BB7B002B08D0BB7B802B05D0BB7B786810
:102BC000194601F081FB20E01FE03B685B88002B89
:102BD00015D1BB7B002B0ED0BB7B802B0BD0BB7BDE
:102BE0007868194601F0ACFB7B68D3F8E4359B6844
:102BF000786839689847786801F02EFD05E004E0B0
:102C00007868396800F026FB00BF51E07B6893F8D4
:102C10001231022B02D0032B0DD043E0BB7B002BE3
:102C200008D0BB7B802B05D0BB7B7868194601F0B0
:102C30004BFB3CE03BE0BB7B5BB2002B15DABB7B84
:102C400003F07F02796813469B001344DB000B44BA
:102C500003F58C739B79002B03D0184B01221A606B
:102C60001AE0164B00221A6016E0BB7B5BB2002B09
:102C700012DBBA7B796813469B001344DB000B44DC
:102C800003F55C739B79002B03D00C4B01221A6077
:102C900002E00A4B00221A6078680849022201F01B
:102CA00093FC04E07868396800F0D4FA00BF00BFF4
:102CB000FB7B18461037BD4680BD00BFF0010020E9
:102CC00080B584B000AF786039603B685B881B0AD0
:102CD0009BB2013B062B00F2B18001A252F823F017
:102CE000FD2C00082F2D0008592D00083D2E00084E
:102CF0003D2E0008292E0008332E00087B68D3F8EB
:102D0000EC351B687A68917807F10A02084611468B
:102D10009847F8603B68DB88402B04D07B6893F8C9
:102D20001231012B02D108237B818CE08BE07B6880
:102D3000D3F8E4359B6A7A68917807F10A0208466D
:102D400011469847F860FB68013302221A707B68CD
:102D5000FA68C3F8F02576E03B685B88DBB2052BA8
:102D60005CD801A252F823F0812D00089B2D0008A9
:102D7000B52D0008CF2D0008E92D0008032E00080E
:102D80007B68D3F8EC355B687A68917807F10A02C2
:102D9000084611469847F86045E07B68D3F8EC3563
:102DA0009B687A68917807F10A02084611469847AD
:102DB000F86038E07B68D3F8EC35DB687A689178A6
:102DC00007F10A02084611469847F8602BE07B6835
:102DD000D3F8EC351B697A68917807F10A02084646
:102DE00011469847F8601EE07B68D3F8EC355B69C4
:102DF0007A68917807F10A02084611469847F86008
:102E000011E07B68D3F8EC359B697A68917807F11B
:102E10000A02084611469847F86004E07868396865
:102E200000F018FA24E00EE07868396800F012FA31
:102E30001EE07868396800F00DFA19E078683968A2
:102E400000F008FA14E07B89002B11D03B68DB8886
:102E5000002B0DD03B68DA887B89934228BF13464C
:102E60009BB27B817B897868F9681A4601F0ACFBDC
:102E70001037BD4680BD00BF80B584B000AF78601C
:102E800039603B689B88002B2DD13B68DB88002B89
:102E900029D13B685B88DBB203F07F03FB737B685F
:102EA00093F81231032B04D17868396800F0D2F915
:102EB00018E07B68FA7B83F81421FB7B786819465D
:102EC00001F094FA786801F0C7FBFB7B002B04D07B
:102ED0007B68022283F8122104E07B68012283F8D8
:102EE000122104E003E07868396800F0B3F9103784
:102EF000BD4680BD80B582B000AF786039603B6868
:102F00005B88DAB2374B1A70364B1B78012B04D929
:102F10007868396800F09EF960E07B6893F81231B8
:102F2000022B02D0032B1BD053E02E4B1B78002B1F
:102F300012D02C4B1A787B6883F810217B6803220F
:102F400083F81221274B1B7878681946FEF756FF45
:102F5000786801F081FB41E0786801F07DFB3DE09D
:102F6000204B1B78002B12D17B68022283F81221A0
:102F70001C4B1A787B6883F810211A4B1B787868F1
:102F80001946FEF753FF786801F066FB20E07B6886
:102F900093F81021134B1B789A4215D07B6893F855
:102FA000103178681946FEF741FF0E4B1A787B689E
:102FB00083F810210B4B1B7878681946FEF71EFF2B
:102FC000786801F049FB03E0786801F045FB05E013
:102FD00004E07868396800F03DF900BF0837BD4665
:102FE00080BD00BFFC01002080B582B000AF7860DA
:102FF00039603B68DB88012B04D07868396800F0C1
:1030000029F91BE07B6893F81231022B02D0032BC5
:1030100006D00EE078680B49012201F0D5FA0DE0E8
:103020007B6803F5887378681946012201F0CCFAB1
:1030300004E07868396800F00DF900BF0837BD4634
:1030400080BD00BFF401002080B582B000AF786081
:1030500039607B6893F81231023B012B13D80E4B79
:1030600001221A607B68D3F81831002B05D00A4B77
:103070001B6843F00203084A13607868064902227D
:1030800001F0A2FA04E07868396800F0E3F800BFC4
:103090000837BD4680BD00BFF801002080B584B070
:1030A00000AF786039600023FB733B685B88012BBD
:1030B0000ED17B680122C3F818217B68D3F8E43570
:1030C0009B68786839689847786801F0C5FA4BE0E2
:1030D0003B685B88022B47D13B689B88DBB2002BA7
:1030E00042D17B681B695B68BB603B689B881B0A9D
:1030F0009BB2FB73FB7B013B042B2BD801A252F844
:1031000023F000BF193100082531000831310008D3
:103110003D310008493100083B7A012262F3061371
:103120003B7217E03B7A022262F306133B7211E016
:103130003B7A032262F306133B720BE03B7A0422D4
:1031400062F306133B7205E03B7A052262F3061335
:103150003B7200BF064ABB6813607B68012283F89C
:103160001621786801F078FA1037BD4680BD00BF9F
:103170000C08002080B582B000AF786039607B68B1
:1031800093F81231023B012B13D83B685B88012B6B
:103190000ED17B680022C3F818217B68D3F8E43590
:1031A0009B68786839689847786801F055FA05E0B7
:1031B00004E07868396800F04DF800BF0837BD4674
:1031C00080BD00BF80B483B000AF786039607B6899
:1031D00093F8CC253B681A707B6893F8CD253B6843
:1031E0005A707B6893F8CE359AB27B6893F8CF35E6
:1031F0009BB21B029BB213449AB23B685A807B6815
:1032000093F8D0359AB27B6893F8D1359BB21B0204
:103210009BB213449AB23B689A807B6893F8D2358C
:103220009AB27B6893F8D3359BB21B029BB21344CE
:103230009AB23B68DA803B68DB881A467B68C3F841
:1032400040217B68012283F811210C37BD465DF8CF
:10325000047B704780B582B000AF786039607868D1
:10326000802101F031F87868002101F02DF87868AC
:10327000FEF77CF80837BD4680BD00BF80B586B03C
:1032800000AFF860B9607A600023FB75FB68002B23
:1032900033D0F86800F034F8034601339BB25B008A
:1032A0009AB27B681A80FB7D5A1CFA751A46BB6875
:1032B00013447A681288D2B21A70FB7D5A1CFA75D0
:1032C0001A46BB68134403221A7012E0FB7D5A1C95
:1032D000FA751A46BB681A44FB68591CF9601B78DA
:1032E0001370FB7D5A1CFA751A46BB681344002202
:1032F0001A70FB681B78002BE8D11837BD4680BDDB
:1033000080B485B000AF78600023FB7305E0FB7BE1
:103310000133FB737B6801337B607B681B78002B78
:10332000F5D1FB7B18461437BD465DF8047B70472A
:1033300080B586B000AF786000237B617868FDF7C8
:1033400043FA0346002B00F0B6807868FDF74EFA8A
:1033500003463B613B69002B01D10023ACE0BB7C01
:1033600003F00803DBB2002B06D0786800F04CFABB
:1033700002467B6913437B61BB7C03F00403DBB231
:10338000002B06D0786800F071F902467B69134380
:103390007B613B7C03F00203DBB2002B09D00023EE
:1033A000FB603B7B43F002033B737B68DB68FA689E
:1033B0005A61FB7C23F07F03DBB2002B06D07868D8
:1033C00000F0B6F802467B6913437B617B7C03F017
:1033D0000803DBB2002B06D0786800F0E9F802465B
:1033E0007B6913437B613B7C03F00803DBB2002B5A
:1033F00006D0786800F0B0FA02467B6913437B611F
:103400003B7C03F01003DBB2002B06D0786800F0A1
:10341000BDFA02467B6913437B617B7C03F010039A
:10342000DBB2002B06D0786800F0A4FB02467B6973
:1034300013437B617B7C03F02003DBB2002B06D0BF
:10344000786800F027FC02467B6913437B61BB7CF4
:1034500003F01003DBB2002B06D0786800F056FCB6
:1034600002467B6913437B61BB7C03F02003DBB224
:10347000002B06D0786800F063FC02467B6913439A
:103480007B61FB7C03F04003DBB2002B06D0786845
:1034900000F016F802467B6913437B613B7C03F026
:1034A0000403DBB2002B06D0786800F023F8024654
:1034B0007B6913437B617B6918461837BD4680BD25
:1034C00080B584B000AF7860094B1B685B6A786890
:1034D00098470023FB60FB7B43F04003FB737B6852
:1034E000DB68FA685A61012318461037BD4680BD73
:1034F0006001002080B584B000AF78607B68DB6835
:103500005B68FB603B7B03F00403DBB2002B04D061
:10351000064B1B689B6A786898477B68DB68FA688B
:103520005A60012318461037BD4680BD6001002057
:1035300080B586B000AF78607B689B7A002B11D095
:103540007B6803F586731B68FB603B7B6FF341036D
:103550003B733B7B6FF300033B737B68D3F80C3109
:10356000FA681A6000233B613B7C43F001033B7423
:103570007B681B697A68126951683A69D2430A40CC
:103580005A600A4B1B689B697868984700237B61E7
:10359000FB7D43F08003FB757B68DB687A695A61C9
:1035A000012318461837BD4680BD00BF60010020CA
:1035B00080B586B000AF78600023FB727B6893F81B
:1035C0001231FB72274B1B685B69786898477B68F0
:1035D0001B699B68FB6000237B617B7D43F00803D4
:1035E0007B757B68DB687A695A617B689B7A002B04
:1035F00032D03B7B03F00103DBB2002B2CD07B6885
:1036000093F81531012B27D1FB7ADBB2032B23D1A1
:1036100000233B613B7C43F001033B747B68D3F8A0
:103620000C317A68D2F80C2111683A690A431A60A1
:103630003B7C43F002033B747B68D3F80C317A681F
:10364000D2F80C2111683A690A431A60064A064BFF
:103650001B6943F006031361012318461837BD4662
:1036600080BD00BF6001002000ED00E080B586B0A5
:1036700000AF786000233B610023BB607868FDF7F2
:103680005FFE7861B4E07B6903F00103002B00F07A
:10369000A9803B69DBB27868194600F06BFB0346F2
:1036A000BB603B7A03F00103DBB2002B32D03B69F5
:1036B000012202FA03F3FB607B681B697A681269D6
:1036C000516BFA68D2430A405A630023BB603B7ACD
:1036D00043F001033B727A683B6904339B00134457
:1036E0009B68BA689A60474B1B685B683A69D2B2BC
:1036F0007868114698477B68DB78012B0AD13B69D3
:10370000002B07D17B6893F81131042B02D1786824
:10371000FDF72CFE3B7A03F00803DBB2002B0DD043
:103720000023BB603B7A43F008033B727A683B6935
:1037300004339B0013449B68BA689A603B7A03F099
:103740001003DBB2002B0DD00023BB603B7A43F0AB
:1037500010033B727A683B6904339B0013449B68F7
:10376000BA689A603B7A03F04003DBB2002B0DD0BD
:103770000023BB603B7A43F040033B727A683B69AD
:1037800004339B0013449B68BA689A603B7A03F049
:103790000203DBB2002B0DD00023BB603B7A43F069
:1037A00002033B727A683B6904339B0013449B68B5
:1037B000BA689A603B7A23F07F03DBB2002B11D00A
:1037C0007868396900F064F90023BB603B7A43F004
:1037D00080033B727A683B6904339B0013449B6807
:1037E000BA689A603B6901333B617B695B087B6126
:1037F0007B69002B7FF447AF012318461837BD467D
:1038000080BD00BF6001002080B586B000AF786049
:1038100000233B610023FB607868FDF75FFD786162
:103820008FE07B6903F00103002B00F084803B698B
:10383000DBB278681946FDF767FD0346FB603B7B0A
:1038400003F00103DBB2002B48D00023FB603B7B7D
:1038500043F001033B737A683B6914339B001344C4
:103860005B68FA689A607B68DB78012B1FD17A6805
:103870003B6914339B0013445B681B69BB60796828
:103880003A6913469B001344DB000B4403F55E7357
:103890005B68BA68C2F31202991A78683A691346EB
:1038A0009B001344DB00034403F562735960294B0A
:1038B0001B681B683A69D2B27868114698477B68E2
:1038C000DB78012B0AD13B69002B07D17B6893F889
:1038D0001131052B02D17868FDF748FD3B7B03F0E1
:1038E0000203DBB2002B0DD00023FB603B7B43F0D7
:1038F00002033B737A683B6914339B0013445B6893
:10390000FA689A603B7B03F00803DBB2002B12D00D
:10391000104B1B689B68786898470023FB603B7BD3
:1039200043F008033B737A683B6914339B001344EC
:103930005B68FA689A603B6901333B617B695B08AD
:103940007B617B69002B7FF46CAF0123184618372D
:10395000BD4680BD6001002080B584B000AF7860B6
:10396000094B1B68DB68786898470023FB603B7B4A
:1039700043F008033B737B68DB68FA685A610123F4
:1039800018461037BD4680BD6001002080B586B066
:1039900000AF786000233B613B7C43F010033B7435
:1039A0007B68DB687A68D26891693A69D2430A40D9
:1039B0009A617B68DB681B6AFB603B7BC3F3030394
:1039C000DBB21A4613469B001344DB0003F55C731D
:1039D0007A68134404337B61BB7BC3F34303DBB2DC
:1039E000013B052B46D801A252F823F0753A000896
:1039F000053A0008753A0008753A0008753A00085B
:103A0000513A0008BA8947F6F07313409BB2002B75
:103A10001DD07B69DA68BB89C3F30A139BB278684F
:103A200011461A46FCF766FC7B69DB68BA89C2F36B
:103A30000A1292B21A447B69DA607B699B69BA897F
:103A4000C2F30A1292B21A447B699A6113E012E03F
:103A50007B6803F2CC53786819460822FCF74AFCCD
:103A60007B699B69BA89C2F30A1292B21A447B69D4
:103A70009A6100E000BF7B68DB687A68D268916970
:103A80003A690A439A61012318461837BD4680BD3A
:103A900080B586B000AF7860396000237B61002379
:103AA000BB603A6813469B001344DB0003F58C733C
:103AB0007A6813440433FB60FB685A69FB689B69AE
:103AC000D31A7B61FB689A687B699A4202D2FB68D1
:103AD0009B687B617B6903339B083B617A683B6829
:103AE00004339B0013449B689B69BB602EE0FB681A
:103AF0005A69FB689B69D31A7B61FB689A687B698A
:103B00009A4202D2FB689B687B617B6903339B0806
:103B10003B61FB68D9683B68DAB27B699BB2786825
:103B2000FCF7ACFBFB68DA687B691A44FB68DA6077
:103B3000FB689A697B691A44FB689A617A683B68FA
:103B400004339B0013449B689B69BB603B891A4606
:103B50003B699A4209D9FB689A69FB685B699A429A
:103B600003D2FB685B69002BC1D1012318461837CB
:103B7000BD4680BD80B58AB000AF786000233B6150
:103B800000233B620023FB610023BB6100237B61B8
:103B90000023FB603B7C43F001033B747B681B69A3
:103BA0007A68126951683A69D2430A405A60786863
:103BB0000021FCF75BFD00237B6212E07A687B6AE0
:103BC00004339B0013449B68FF229A607A687B6AE7
:103BD00014339B0013445B68FF229A607B6A0133B5
:103BE0007B627B685B781A467B6A9A42E6D87B6880
:103BF0001B694FF0FF329A6101233B8401237B84D0
:103C00007B681B693A6ADA613B7F43F008033B77C4
:103C10003B7F43F001033B773B7F43F002033B775D
:103C20007B681B69FA695A613B7E43F001033B766E
:103C30003B7E43F008033B763B7E43F002033B763A
:103C40007B681B69BA691A617B681B691B687B61A9
:103C5000BB8A6FF30A13BB827B681B697A691A609F
:103C60007868FDF783FB0023FB607B7B43F0100348
:103C70007B737B68DB68FA685A61054B1B681B69BC
:103C800078689847012318462837BD4680BD00BF95
:103C90006001002080B584B000AF78607868FCF7E0
:103CA00083FF7B68DB68DB68BB607868FCF758FFE4
:103CB0000346032B0CD17B6800229A707B684FF47B
:103CC00000729A807B7A092262F385037B720AE094
:103CD0007B6801229A707B6840229A807B7A052259
:103CE00062F385037B727B68DB68BA68DA60002365
:103CF000FB607B7B43F020037B737B68DB68FA68A7
:103D00005A61012318461037BD4680BD80B584B086
:103D100000AF78600023FB60084B1B68DB697868A4
:103D20009847BB7B43F01003BB737B68DB68FA6882
:103D30005A61012318461037BD4680BD600100203E
:103D400080B584B000AF78600023FB60084B1B682F
:103D50001B6A78689847BB7B43F02003BB737B6882
:103D6000DB68FA685A61012318461037BD4680BDEA
:103D70006001002080B487B000AF78600B46FB7014
:103D80007B681B691B697B617B681B695B6B3B61A3
:103D9000FB783A6922FA03F3DB01DBB27A69134359
:103DA0007B61FB787A6804339B0013449B689A68B4
:103DB0007B691340FB60FB6818461C37BD465DF805
:103DC000047B704780B485B000AF78600023FB604F
:103DD000344BFB607B689B79002B4FD03149314BD2
:103DE0001A687B681B68DB4313400B602D492D4B21
:103DF0005A687B681B68DB4313404B607B681B7908
:103E00001A46FB681344FB60FB68FA6811687A681D
:103E100012680A431A602349224B9A687B681B6820
:103E2000DB4313408B601F491E4BDA687B681B68BD
:103E3000DB431340CB607B685B79102B0ED11949B3
:103E4000184B9A687B681B6813438B601549154BA8
:103E5000DA687B681B681343CB601DE0114BFB6085
:103E60007B685B791A46FB681344FB60FB68FA6861
:103E700011687A6812680A431A600DE07B681B7942
:103E80001A46FB681344FB60FB68FA6811687A689D
:103E90001268D2430A401A601437BD465DF8047BAD
:103EA000704700BF003C014080B483B000AF786031
:103EB000034A7B6853610C37BD465DF8047B70474D
:103EC000003C014080B483B000AF7860054A7B6855
:103ED00043F0BF6343F40033D3600C37BD465DF855
:103EE000047B704700ED00E080B485B000AF7860DF
:103EF0000023FB730023BB730F237B737B68DB788A
:103F0000002B38D0264BDB68DB4303F4E0631B0A4D
:103F1000FB73FB7BC3F10403BB737A7BFB7B42FA2D
:103F200003F37B737B685B781A46BB7B02FA03F36F
:103F3000FB737B689A787B7B1340DAB2FB7B13437D
:103F4000FB73FB7B1B01FB73164A7B681B781344D6
:103F5000FA7B83F80023134A7B681B785B09DBB28A
:103F600018467B681B7803F01F03012101FA03F355
:103F700042F820300FE00B497B681B785B09DBB20D
:103F800018467B681B7803F01F0301229A4000F15A
:103F9000200341F823201437BD465DF8047B7047A9
:103FA00000ED00E000E100E080B584B000AF786093
:103FB0000B46FB70FB7878681946FCF7C7F97B68FD
:103FC000012283F812217B68002283F81421002348
:103FD000FB6024E0FA6813469B001344DB0003F502
:103FE0008C737A6813440433BB60BB6801225A7037
:103FF000FB68DAB2BB681A70FB689AB2BB68DA80F9
:10400000BB680022DA70BB6840229A60BB6800225D
:10401000DA60BB6800225A61FB680133FB607B6891
:104020005B781A46FB689A42D4D80023FB6024E0F0
:10403000FA6813469B001344DB0003F55C737A684F
:1040400013440433BB60BB6800225A70FB68DAB2C9
:10405000BB681A70FB689AB2BB68DA80BB68002242
:10406000DA70BB6840229A60BB680022DA60BB68E5
:1040700000225A61FB680133FB607B685B781A465B
:10408000FB689A42D4D87868FCF7D4FA7868FCF7D1
:104090001BFA78680021FCF757FB7868FCF7DAFB1D
:1040A0007868FCF7ABFA1037BD4680BD80B584B0A8
:1040B00000AF7860084611461A460346FB700B466F
:1040C0003B801346BB70FB785BB2002B0DDAFB78AC
:1040D00003F07F0213469B001344DB0003F58C734F
:1040E0007A6813440433FB600CE0FB7803F07F0232
:1040F00013469B001344DB0003F55C737A6813449A
:104100000433FB60FB7803F07F03DAB2FB681A70BC
:10411000FB78DB09DBB21A46FB685A703A88FB6809
:104120009A60FB68BA78DA70FB685B78002B04D081
:10413000FB681B789AB2FB68DA80BB78022B02D14D
:10414000FB6800221A717868F968FCF769FD0023A2
:1041500018461037BD4680BD80B584B000AF78608A
:104160000B46FB70FB785BB2002B0DDAFB7803F09B
:104170007F0213469B001344DB0003F58C737A68BF
:1041800013440433FB600CE0FB7803F07F0213461A
:104190009B001344DB0003F55C737A68134404331B
:1041A000FB60FB7803F07F03DAB2FB681A70FB78E0
:1041B000DB09DBB21A46FB685A707868F968FCF7CD
:1041C0009DFD002318461037BD4680BD80B586B0E2
:1041D00000AFF8607A601A460B46FB7213463B81CB
:1041E000FB7A03F07F0213469B001344DB0003F5C8
:1041F0005C73FA68134404337B617B697A68DA6024
:104200003A897B695A617B6900229A617B69002245
:104210005A70FB7A03F07F03DAB27B691A70FB688D
:10422000DB78012B02D17A687B691A617B691B7884
:10423000002B04D1F8687969FCF7E6FE03E0F86822
:104240007969FCF7A1FD002318461837BD4680BDEB
:1042500080B586B000AFF8607A603B600B46FB72B9
:10426000FB7A03F07F0213469B001344DB0003F547
:104270008C73FA68134404337B617B6901225A70A2
:10428000FB7A03F07F03DAB27B691A707B697A6884
:10429000DA607A687B691A617B6900229A617B69BE
:1042A0003A685A617B691B78002B04D1F8687969F8
:1042B000FCF7AAFE03E0F8687969FCF765FD0023C6
:1042C00018461837BD4680BD80B584B000AF786011
:1042D0000B46FB70FB785BB2002B0DDAFB7803F02A
:1042E0007F0213469B001344DB0003F58C737A684E
:1042F00013440433FB600AE0FA7813469B0013442E
:10430000DB0003F55C737A6813440433FB60FB68DD
:1043100001229A70FB7803F07F03DAB2FB681A700F
:10432000FB78DB09DBB21A46FB685A707868F968DB
:10433000FCF754FF002318461037BD4680BD00BF70
:1043400080B584B000AF78600B46FB70FB785BB241
:10435000002B0DDAFB7803F07F0213469B00134419
:10436000DB0003F58C737A6813440433FB600AE0C6
:10437000FA7813469B001344DB0003F55C737A68FC
:1043800013440433FB60FB6800229A70FB7803F04F
:104390007F03DAB2FB681A70FB78DB09DBB21A46DE
:1043A000FB685A707868F968FCF75CFF00231846D0
:1043B0001037BD4680BD00BF80B582B000AF7860C9
:1043C0000B46FB70FB785BB2002B07DAFB7803F03F
:1043D0007F0378681946FCF749F902E07868FCF732
:1043E00083F9002318460837BD4680BD80B485B0E8
:1043F00000AF78600B46FB700023FB60FB7803F096
:104400007F03DAB2BB8962F30A13BB817B681B6945
:104410007A6812691168FA680A431A601437BD464F
:104420005DF8047B704700BF90B585B002AF78603F
:10443000084611461A4603467B800B467B7013469E
:104440003B707B88002B00D10DE0786800F020F8ED
:1044500079887A783C783B7E00933B7F019378683B
:10446000234600F02BF80C37BD4690BD80B483B0D6
:1044700000AF78607B6803F13F4303F57E039B0A3E
:104480009BB218460C37BD465DF8047B704700BFF1
:1044900080B582B000AF78607868FFF7E7FF034629
:1044A0001A46012303FA02F1034A034B1B6B0B4329
:1044B00013630837BD4680BD0038024080B584B024
:1044C00000AF7860084611461A4603467B800B46CB
:1044D0007B7013463B707868FFF7C8FF0346BB73D9
:1044E0000023FB7367E07A88FB7B42FA03F303F057
:1044F0000103002B00D15BE0BB7BBA7B314931F873
:10450000122090B2FA7B012101FA02F292B2014626
:104510000A4392B291B22B4A22F813107B68DB68EF
:10452000FA7B5200032101FA02F2D2431340397E92
:10453000FA7B520001FA02F21A437B68DA607B6868
:104540001A68FB7B5B00032101FA03F3DB43134092
:104550007978FA7B520001FA02F21A437B681A60FA
:104560007B78012B02D07B78022B21D17B685B68A2
:10457000FA7B012101FA02F292B2D2431340397858
:10458000FA7B01FA02F292B21A437B685A607B68A6
:104590009A68FB7B5B00032101FA03F3DB431340C2
:1045A000397FFA7B520001FA02F21A437B689A6063
:1045B000FB7B0133FB73FB7B0F2B94D91037BD467C
:1045C00080BD00BF0002002080B586B000AFF8605B
:1045D000B9601346FB800023FB75FA88FB68C3F8BB
:1045E0003C21FA88FB68C3F83821FB68022283F873
:1045F0001121FB88F8680021BA68FFF729FEFB7DCE
:1046000018461837BD4680BD80B586B000AFF8604B
:10461000B9601346FB800023FB75FB88F868002116
:10462000BA68FFF715FEFB7D18461837BD4680BDFA
:1046300080B586B000AFF860B9601346FB800023F8
:10464000FB75FB88F8680021BA68FFF7BFFDFB7DAA
:1046500018461837BD4680BD80B584B000AF78607D
:104660000023FB737B68042283F811217868002102
:1046700000220023FFF7ECFD7868FCF777FEFB7B58
:1046800018461037BD4680BD80B584B000AF786055
:104690000023FB737B68052283F8112178680021D1
:1046A00000220023FFF792FD7868FCF75FFEFB7B9A
:1046B00018461037BD4680BD544D20555342204802
:1046C00049442064657669636520696E20485320FB
:1046D0006D6F646500000000544D20555342204822
:1046E00049442064657669636520696E20465320DD
:1046F0006D6F64650000000053544D6963726F650F
:104700006C656374726F6E696373000030303030B3
:104710003030303030313142000000003030303045
:1047200030303030303131430000000048494420FF
:10473000436F6E666967000048494420496E74659E
:0647400072666163650072
:10474600E916000801170008211700086917000874
:104756008117000839170008511700084918000882
:1047660079180008A11800080000000000000000E9
:10477600291A0008000000000000000000000000E8
:1047860000000000051A000809022200010100E0ED
:104796003209040000010300000009211101000193
:1047A60022C5000705810304000A00000501090669
:1047B600A1018501050719E029E715002501750105
:1047C60095088102950175088103950675081500FF
:1047D60025650507190029658100C005010902A1A3
:1047E600010901A100850205091901290315002502
:1047F600019503750181029501750581030501097E
:1048060030093109381581257F750895038106C061
:10481600C005010905A101A10085030509190129A2
:104826001015002501951075018102050109300951
:1048360031093209331581257F750895048102C037
:10484600C005010905A101A1008504050919012971
:104856001015002501951075018102050109300921
:1048660031093209331581257F750895048102C007
:10487600C0000000211B0008ED1B0008B51A000847
:10488600D11D00082D1D0008A11D0008711D00087E
:10489600551E0008751E0008951E0008B91E000862
:1048A6003401002091230008B523000819240008CC
:1048B600D92300084124000881240008BD240008EB
:1048C600120100020000004083041057000201029A
:1048D600030100000A06000200000040010000007B
:1048E60004030904007A030A000000000000000027
:0848F600010203040607080992
:0400000508000000EF
:00000001FF
